{"abi":[{"inputs":[{"internalType":"string","name":"","type":"string"},{"internalType":"uint256","name":"","type":"uint256"}],"name":"bids","outputs":[{"internalType":"uint256","name":"amount","type":"uint256"},{"internalType":"string","name":"equity","type":"string"},{"internalType":"string","name":"bidPlacer","type":"string"}],"stateMutability":"view","type":"function"},{"inputs":[{"internalType":"string","name":"filename","type":"string"}],"name":"getPlacedBids","outputs":[{"components":[{"internalType":"uint256","name":"amount","type":"uint256"},{"internalType":"string","name":"equity","type":"string"},{"internalType":"string","name":"bidPlacer","type":"string"}],"internalType":"struct Fundhunting.Bid[]","name":"","type":"tuple[]"}],"stateMutability":"view","type":"function"},{"inputs":[],"name":"payVideoUploadingFee","outputs":[{"internalType":"bool","name":"","type":"bool"}],"stateMutability":"payable","type":"function"},{"inputs":[{"internalType":"string","name":"filename","type":"string"},{"internalType":"uint256","name":"amount","type":"uint256"},{"internalType":"string","name":"equity","type":"string"},{"internalType":"string","name":"bidPlacer","type":"string"}],"name":"placeBid","outputs":[{"internalType":"bool","name":"","type":"bool"}],"stateMutability":"payable","type":"function"}],"devdoc":{"kind":"dev","methods":{},"version":1},"evm":{"assembly":"    /* \"Fundhunting.sol\":62:1903  contract Fundhunting{... */\n  mstore(0x40, 0x80)\n    /* \"Fundhunting.sol\":121:163  0x51459DD83df6b28FbDc24873fB23485d19f3F6ac */\n  0x51459dd83df6b28fbdc24873fb23485d19f3f6ac\n    /* \"Fundhunting.sol\":91:163  address FundhuntingDirector = 0x51459DD83df6b28FbDc24873fB23485d19f3F6ac */\n  0x00\n  dup1\n  0x0100\n  exp\n  dup2\n  sload\n  dup2\n  0xffffffffffffffffffffffffffffffffffffffff\n  mul\n  not\n  and\n  swap1\n  dup4\n  0xffffffffffffffffffffffffffffffffffffffff\n  and\n  mul\n  or\n  swap1\n  sstore\n  pop\n    /* \"Fundhunting.sol\":62:1903  contract Fundhunting{... */\n  callvalue\n  dup1\n  iszero\n  tag_1\n  jumpi\n  0x00\n  dup1\n  revert\ntag_1:\n  pop\n  dataSize(sub_0)\n  dup1\n  dataOffset(sub_0)\n  0x00\n  codecopy\n  0x00\n  return\nstop\n\nsub_0: assembly {\n        /* \"Fundhunting.sol\":62:1903  contract Fundhunting{... */\n      mstore(0x40, 0x80)\n      jumpi(tag_1, lt(calldatasize, 0x04))\n      shr(0xe0, calldataload(0x00))\n      dup1\n      0x4165728d\n      eq\n      tag_2\n      jumpi\n      dup1\n      0x48d13a14\n      eq\n      tag_3\n      jumpi\n      dup1\n      0x9abe2039\n      eq\n      tag_4\n      jumpi\n      dup1\n      0xcce2cdd4\n      eq\n      tag_5\n      jumpi\n    tag_1:\n      0x00\n      dup1\n      revert\n        /* \"Fundhunting.sol\":350:386  mapping(string => Bid[]) public bids */\n    tag_2:\n      callvalue\n      dup1\n      iszero\n      tag_6\n      jumpi\n      0x00\n      dup1\n      revert\n    tag_6:\n      pop\n      tag_7\n      0x04\n      dup1\n      calldatasize\n      sub\n      dup2\n      add\n      swap1\n      tag_8\n      swap2\n      swap1\n      tag_9\n      jump\t// in\n    tag_8:\n      tag_10\n      jump\t// in\n    tag_7:\n      mload(0x40)\n      tag_11\n      swap4\n      swap3\n      swap2\n      swap1\n      tag_12\n      jump\t// in\n    tag_11:\n      mload(0x40)\n      dup1\n      swap2\n      sub\n      swap1\n      return\n        /* \"Fundhunting.sol\":687:1186  function placeBid(... */\n    tag_3:\n      tag_13\n      0x04\n      dup1\n      calldatasize\n      sub\n      dup2\n      add\n      swap1\n      tag_14\n      swap2\n      swap1\n      tag_15\n      jump\t// in\n    tag_14:\n      tag_16\n      jump\t// in\n    tag_13:\n      mload(0x40)\n      tag_17\n      swap2\n      swap1\n      tag_18\n      jump\t// in\n    tag_17:\n      mload(0x40)\n      dup1\n      swap2\n      sub\n      swap1\n      return\n        /* \"Fundhunting.sol\":1194:1315  function getPlacedBids(string memory filename) public view returns (Bid[] memory){... */\n    tag_4:\n      callvalue\n      dup1\n      iszero\n      tag_19\n      jumpi\n      0x00\n      dup1\n      revert\n    tag_19:\n      pop\n      tag_20\n      0x04\n      dup1\n      calldatasize\n      sub\n      dup2\n      add\n      swap1\n      tag_21\n      swap2\n      swap1\n      tag_22\n      jump\t// in\n    tag_21:\n      tag_23\n      jump\t// in\n    tag_20:\n      mload(0x40)\n      tag_24\n      swap2\n      swap1\n      tag_25\n      jump\t// in\n    tag_24:\n      mload(0x40)\n      dup1\n      swap2\n      sub\n      swap1\n      return\n        /* \"Fundhunting.sol\":431:679  function payVideoUploadingFee() public payable returns(bool){... */\n    tag_5:\n      tag_26\n      tag_27\n      jump\t// in\n    tag_26:\n      mload(0x40)\n      tag_28\n      swap2\n      swap1\n      tag_18\n      jump\t// in\n    tag_28:\n      mload(0x40)\n      dup1\n      swap2\n      sub\n      swap1\n      return\n        /* \"Fundhunting.sol\":350:386  mapping(string => Bid[]) public bids */\n    tag_10:\n      0x01\n      dup3\n      dup1\n      mload\n      0x20\n      dup2\n      add\n      dup3\n      add\n      dup1\n      mload\n      dup5\n      dup3\n      mstore\n      0x20\n      dup4\n      add\n      0x20\n      dup6\n      add\n      keccak256\n      dup2\n      dup4\n      mstore\n      dup1\n      swap6\n      pop\n      pop\n      pop\n      pop\n      pop\n      pop\n      dup2\n      dup2\n      sload\n      dup2\n      lt\n      tag_29\n      jumpi\n      0x00\n      dup1\n      revert\n    tag_29:\n      swap1\n      0x00\n      mstore\n      keccak256(0x00, 0x20)\n      swap1\n      0x03\n      mul\n      add\n      0x00\n      swap2\n      pop\n      swap2\n      pop\n      pop\n      dup1\n      0x00\n      add\n      sload\n      swap1\n      dup1\n      0x01\n      add\n      dup1\n      sload\n      tag_31\n      swap1\n      tag_32\n      jump\t// in\n    tag_31:\n      dup1\n      0x1f\n      add\n      0x20\n      dup1\n      swap2\n      div\n      mul\n      0x20\n      add\n      mload(0x40)\n      swap1\n      dup2\n      add\n      0x40\n      mstore\n      dup1\n      swap3\n      swap2\n      swap1\n      dup2\n      dup2\n      mstore\n      0x20\n      add\n      dup3\n      dup1\n      sload\n      tag_33\n      swap1\n      tag_32\n      jump\t// in\n    tag_33:\n      dup1\n      iszero\n      tag_34\n      jumpi\n      dup1\n      0x1f\n      lt\n      tag_35\n      jumpi\n      0x0100\n      dup1\n      dup4\n      sload\n      div\n      mul\n      dup4\n      mstore\n      swap2\n      0x20\n      add\n      swap2\n      jump(tag_34)\n    tag_35:\n      dup3\n      add\n      swap2\n      swap1\n      0x00\n      mstore\n      keccak256(0x00, 0x20)\n      swap1\n    tag_36:\n      dup2\n      sload\n      dup2\n      mstore\n      swap1\n      0x01\n      add\n      swap1\n      0x20\n      add\n      dup1\n      dup4\n      gt\n      tag_36\n      jumpi\n      dup3\n      swap1\n      sub\n      0x1f\n      and\n      dup3\n      add\n      swap2\n    tag_34:\n      pop\n      pop\n      pop\n      pop\n      pop\n      swap1\n      dup1\n      0x02\n      add\n      dup1\n      sload\n      tag_37\n      swap1\n      tag_32\n      jump\t// in\n    tag_37:\n      dup1\n      0x1f\n      add\n      0x20\n      dup1\n      swap2\n      div\n      mul\n      0x20\n      add\n      mload(0x40)\n      swap1\n      dup2\n      add\n      0x40\n      mstore\n      dup1\n      swap3\n      swap2\n      swap1\n      dup2\n      dup2\n      mstore\n      0x20\n      add\n      dup3\n      dup1\n      sload\n      tag_38\n      swap1\n      tag_32\n      jump\t// in\n    tag_38:\n      dup1\n      iszero\n      tag_39\n      jumpi\n      dup1\n      0x1f\n      lt\n      tag_40\n      jumpi\n      0x0100\n      dup1\n      dup4\n      sload\n      div\n      mul\n      dup4\n      mstore\n      swap2\n      0x20\n      add\n      swap2\n      jump(tag_39)\n    tag_40:\n      dup3\n      add\n      swap2\n      swap1\n      0x00\n      mstore\n      keccak256(0x00, 0x20)\n      swap1\n    tag_41:\n      dup2\n      sload\n      dup2\n      mstore\n      swap1\n      0x01\n      add\n      swap1\n      0x20\n      add\n      dup1\n      dup4\n      gt\n      tag_41\n      jumpi\n      dup3\n      swap1\n      sub\n      0x1f\n      and\n      dup3\n      add\n      swap2\n    tag_39:\n      pop\n      pop\n      pop\n      pop\n      pop\n      swap1\n      pop\n      dup4\n      jump\t// out\n        /* \"Fundhunting.sol\":687:1186  function placeBid(... */\n    tag_16:\n        /* \"Fundhunting.sol\":860:864  bool */\n      0x00\n        /* \"Fundhunting.sol\":898:909  0.001 ether */\n      0x038d7ea4c68000\n        /* \"Fundhunting.sol\":885:894  msg.value */\n      callvalue\n        /* \"Fundhunting.sol\":885:909  msg.value >= 0.001 ether */\n      lt\n      iszero\n        /* \"Fundhunting.sol\":877:910  require(msg.value >= 0.001 ether) */\n      tag_43\n      jumpi\n      0x00\n      dup1\n      revert\n    tag_43:\n        /* \"Fundhunting.sol\":932:951  FundhuntingDirector */\n      0x00\n      dup1\n      sload\n      swap1\n      0x0100\n      exp\n      swap1\n      div\n      0xffffffffffffffffffffffffffffffffffffffff\n      and\n        /* \"Fundhunting.sol\":923:961  payable (FundhuntingDirector).transfer */\n      0xffffffffffffffffffffffffffffffffffffffff\n      and\n        /* \"Fundhunting.sol\":923:972  payable (FundhuntingDirector).transfer(msg.value) */\n      0x08fc\n        /* \"Fundhunting.sol\":962:971  msg.value */\n      callvalue\n        /* \"Fundhunting.sol\":923:972  payable (FundhuntingDirector).transfer(msg.value) */\n      swap1\n      dup2\n      iszero\n      mul\n      swap1\n      mload(0x40)\n      0x00\n      mload(0x40)\n      dup1\n      dup4\n      sub\n      dup2\n      dup6\n      dup9\n      dup9\n      call\n      swap4\n      pop\n      pop\n      pop\n      pop\n      iszero\n      dup1\n      iszero\n      tag_45\n      jumpi\n      returndatasize\n      0x00\n      dup1\n      returndatacopy\n      revert(0x00, returndatasize)\n    tag_45:\n      pop\n        /* \"Fundhunting.sol\":985:1002  Bid memory newBid */\n      0x00\n        /* \"Fundhunting.sol\":1005:1114  Bid({... */\n      mload(0x40)\n      dup1\n      0x60\n      add\n      0x40\n      mstore\n      dup1\n        /* \"Fundhunting.sol\":1032:1038  amount */\n      dup7\n        /* \"Fundhunting.sol\":1005:1114  Bid({... */\n      dup2\n      mstore\n      0x20\n      add\n        /* \"Fundhunting.sol\":1061:1067  equity */\n      dup6\n        /* \"Fundhunting.sol\":1005:1114  Bid({... */\n      dup2\n      mstore\n      0x20\n      add\n        /* \"Fundhunting.sol\":1093:1102  bidPlacer */\n      dup5\n        /* \"Fundhunting.sol\":1005:1114  Bid({... */\n      dup2\n      mstore\n      pop\n        /* \"Fundhunting.sol\":985:1114  Bid memory newBid = Bid({... */\n      swap1\n      pop\n        /* \"Fundhunting.sol\":1127:1131  bids */\n      0x01\n        /* \"Fundhunting.sol\":1132:1140  filename */\n      dup7\n        /* \"Fundhunting.sol\":1127:1141  bids[filename] */\n      mload(0x40)\n      tag_46\n      swap2\n      swap1\n      tag_47\n      jump\t// in\n    tag_46:\n      swap1\n      dup2\n      mstore\n      0x20\n      add\n      mload(0x40)\n      dup1\n      swap2\n      sub\n      swap1\n      keccak256\n        /* \"Fundhunting.sol\":1147:1153  newBid */\n      dup2\n        /* \"Fundhunting.sol\":1127:1154  bids[filename].push(newBid) */\n      swap1\n      dup1\n      0x01\n      dup2\n      sload\n      add\n      dup1\n      dup3\n      sstore\n      dup1\n      swap2\n      pop\n      pop\n      0x01\n      swap1\n      sub\n      swap1\n      0x00\n      mstore\n      keccak256(0x00, 0x20)\n      swap1\n      0x03\n      mul\n      add\n      0x00\n      swap1\n      swap2\n      swap1\n      swap2\n      swap1\n      swap2\n      pop\n      0x00\n      dup3\n      add\n      mload\n      dup2\n      0x00\n      add\n      sstore\n      0x20\n      dup3\n      add\n      mload\n      dup2\n      0x01\n      add\n      swap1\n      dup1\n      mload\n      swap1\n      0x20\n      add\n      swap1\n      tag_49\n      swap3\n      swap2\n      swap1\n      tag_50\n      jump\t// in\n    tag_49:\n      pop\n      0x40\n      dup3\n      add\n      mload\n      dup2\n      0x02\n      add\n      swap1\n      dup1\n      mload\n      swap1\n      0x20\n      add\n      swap1\n      tag_51\n      swap3\n      swap2\n      swap1\n      tag_50\n      jump\t// in\n    tag_51:\n      pop\n      pop\n      pop\n        /* \"Fundhunting.sol\":1174:1178  true */\n      0x01\n        /* \"Fundhunting.sol\":1167:1178  return true */\n      swap2\n      pop\n      pop\n        /* \"Fundhunting.sol\":687:1186  function placeBid(... */\n      swap5\n      swap4\n      pop\n      pop\n      pop\n      pop\n      jump\t// out\n        /* \"Fundhunting.sol\":1194:1315  function getPlacedBids(string memory filename) public view returns (Bid[] memory){... */\n    tag_23:\n        /* \"Fundhunting.sol\":1262:1274  Bid[] memory */\n      0x60\n        /* \"Fundhunting.sol\":1293:1297  bids */\n      0x01\n        /* \"Fundhunting.sol\":1298:1306  filename */\n      dup3\n        /* \"Fundhunting.sol\":1293:1307  bids[filename] */\n      mload(0x40)\n      tag_53\n      swap2\n      swap1\n      tag_47\n      jump\t// in\n    tag_53:\n      swap1\n      dup2\n      mstore\n      0x20\n      add\n      mload(0x40)\n      dup1\n      swap2\n      sub\n      swap1\n      keccak256\n        /* \"Fundhunting.sol\":1286:1307  return bids[filename] */\n      dup1\n      sload\n      dup1\n      0x20\n      mul\n      0x20\n      add\n      mload(0x40)\n      swap1\n      dup2\n      add\n      0x40\n      mstore\n      dup1\n      swap3\n      swap2\n      swap1\n      dup2\n      dup2\n      mstore\n      0x20\n      add\n      0x00\n      swap1\n    tag_54:\n      dup3\n      dup3\n      lt\n      iszero\n      tag_55\n      jumpi\n      dup4\n      dup3\n      swap1\n      0x00\n      mstore\n      keccak256(0x00, 0x20)\n      swap1\n      0x03\n      mul\n      add\n      mload(0x40)\n      dup1\n      0x60\n      add\n      0x40\n      mstore\n      swap1\n      dup2\n      0x00\n      dup3\n      add\n      sload\n      dup2\n      mstore\n      0x20\n      add\n      0x01\n      dup3\n      add\n      dup1\n      sload\n      tag_57\n      swap1\n      tag_32\n      jump\t// in\n    tag_57:\n      dup1\n      0x1f\n      add\n      0x20\n      dup1\n      swap2\n      div\n      mul\n      0x20\n      add\n      mload(0x40)\n      swap1\n      dup2\n      add\n      0x40\n      mstore\n      dup1\n      swap3\n      swap2\n      swap1\n      dup2\n      dup2\n      mstore\n      0x20\n      add\n      dup3\n      dup1\n      sload\n      tag_58\n      swap1\n      tag_32\n      jump\t// in\n    tag_58:\n      dup1\n      iszero\n      tag_59\n      jumpi\n      dup1\n      0x1f\n      lt\n      tag_60\n      jumpi\n      0x0100\n      dup1\n      dup4\n      sload\n      div\n      mul\n      dup4\n      mstore\n      swap2\n      0x20\n      add\n      swap2\n      jump(tag_59)\n    tag_60:\n      dup3\n      add\n      swap2\n      swap1\n      0x00\n      mstore\n      keccak256(0x00, 0x20)\n      swap1\n    tag_61:\n      dup2\n      sload\n      dup2\n      mstore\n      swap1\n      0x01\n      add\n      swap1\n      0x20\n      add\n      dup1\n      dup4\n      gt\n      tag_61\n      jumpi\n      dup3\n      swap1\n      sub\n      0x1f\n      and\n      dup3\n      add\n      swap2\n    tag_59:\n      pop\n      pop\n      pop\n      pop\n      pop\n      dup2\n      mstore\n      0x20\n      add\n      0x02\n      dup3\n      add\n      dup1\n      sload\n      tag_62\n      swap1\n      tag_32\n      jump\t// in\n    tag_62:\n      dup1\n      0x1f\n      add\n      0x20\n      dup1\n      swap2\n      div\n      mul\n      0x20\n      add\n      mload(0x40)\n      swap1\n      dup2\n      add\n      0x40\n      mstore\n      dup1\n      swap3\n      swap2\n      swap1\n      dup2\n      dup2\n      mstore\n      0x20\n      add\n      dup3\n      dup1\n      sload\n      tag_63\n      swap1\n      tag_32\n      jump\t// in\n    tag_63:\n      dup1\n      iszero\n      tag_64\n      jumpi\n      dup1\n      0x1f\n      lt\n      tag_65\n      jumpi\n      0x0100\n      dup1\n      dup4\n      sload\n      div\n      mul\n      dup4\n      mstore\n      swap2\n      0x20\n      add\n      swap2\n      jump(tag_64)\n    tag_65:\n      dup3\n      add\n      swap2\n      swap1\n      0x00\n      mstore\n      keccak256(0x00, 0x20)\n      swap1\n    tag_66:\n      dup2\n      sload\n      dup2\n      mstore\n      swap1\n      0x01\n      add\n      swap1\n      0x20\n      add\n      dup1\n      dup4\n      gt\n      tag_66\n      jumpi\n      dup3\n      swap1\n      sub\n      0x1f\n      and\n      dup3\n      add\n      swap2\n    tag_64:\n      pop\n      pop\n      pop\n      pop\n      pop\n      dup2\n      mstore\n      pop\n      pop\n      dup2\n      mstore\n      0x20\n      add\n      swap1\n      0x01\n      add\n      swap1\n      jump(tag_54)\n    tag_55:\n      pop\n      pop\n      pop\n      pop\n      swap1\n      pop\n        /* \"Fundhunting.sol\":1194:1315  function getPlacedBids(string memory filename) public view returns (Bid[] memory){... */\n      swap2\n      swap1\n      pop\n      jump\t// out\n        /* \"Fundhunting.sol\":431:679  function payVideoUploadingFee() public payable returns(bool){... */\n    tag_27:\n        /* \"Fundhunting.sol\":486:490  bool */\n      0x00\n        /* \"Fundhunting.sol\":523:534  0.001 ether */\n      0x038d7ea4c68000\n        /* \"Fundhunting.sol\":510:519  msg.value */\n      callvalue\n        /* \"Fundhunting.sol\":510:534  msg.value >= 0.001 ether */\n      lt\n      iszero\n        /* \"Fundhunting.sol\":502:535  require(msg.value >= 0.001 ether) */\n      tag_68\n      jumpi\n      0x00\n      dup1\n      revert\n    tag_68:\n        /* \"Fundhunting.sol\":557:576  FundhuntingDirector */\n      0x00\n      dup1\n      sload\n      swap1\n      0x0100\n      exp\n      swap1\n      div\n      0xffffffffffffffffffffffffffffffffffffffff\n      and\n        /* \"Fundhunting.sol\":548:586  payable (FundhuntingDirector).transfer */\n      0xffffffffffffffffffffffffffffffffffffffff\n      and\n        /* \"Fundhunting.sol\":548:597  payable (FundhuntingDirector).transfer(msg.value) */\n      0x08fc\n        /* \"Fundhunting.sol\":587:596  msg.value */\n      callvalue\n        /* \"Fundhunting.sol\":548:597  payable (FundhuntingDirector).transfer(msg.value) */\n      swap1\n      dup2\n      iszero\n      mul\n      swap1\n      mload(0x40)\n      0x00\n      mload(0x40)\n      dup1\n      dup4\n      sub\n      dup2\n      dup6\n      dup9\n      dup9\n      call\n      swap4\n      pop\n      pop\n      pop\n      pop\n      iszero\n      dup1\n      iszero\n      tag_70\n      jumpi\n      returndatasize\n      0x00\n      dup1\n      returndatacopy\n      revert(0x00, returndatasize)\n    tag_70:\n      pop\n        /* \"Fundhunting.sol\":665:669  true */\n      0x01\n        /* \"Fundhunting.sol\":658:669  return true */\n      swap1\n      pop\n        /* \"Fundhunting.sol\":431:679  function payVideoUploadingFee() public payable returns(bool){... */\n      swap1\n      jump\t// out\n    tag_50:\n      dup3\n      dup1\n      sload\n      tag_71\n      swap1\n      tag_32\n      jump\t// in\n    tag_71:\n      swap1\n      0x00\n      mstore\n      keccak256(0x00, 0x20)\n      swap1\n      0x1f\n      add\n      0x20\n      swap1\n      div\n      dup2\n      add\n      swap3\n      dup3\n      tag_73\n      jumpi\n      0x00\n      dup6\n      sstore\n      jump(tag_72)\n    tag_73:\n      dup3\n      0x1f\n      lt\n      tag_74\n      jumpi\n      dup1\n      mload\n      not(0xff)\n      and\n      dup4\n      dup1\n      add\n      or\n      dup6\n      sstore\n      jump(tag_72)\n    tag_74:\n      dup3\n      dup1\n      add\n      0x01\n      add\n      dup6\n      sstore\n      dup3\n      iszero\n      tag_72\n      jumpi\n      swap2\n      dup3\n      add\n    tag_75:\n      dup3\n      dup2\n      gt\n      iszero\n      tag_76\n      jumpi\n      dup3\n      mload\n      dup3\n      sstore\n      swap2\n      0x20\n      add\n      swap2\n      swap1\n      0x01\n      add\n      swap1\n      jump(tag_75)\n    tag_76:\n    tag_72:\n      pop\n      swap1\n      pop\n      tag_77\n      swap2\n      swap1\n      tag_78\n      jump\t// in\n    tag_77:\n      pop\n      swap1\n      jump\t// out\n    tag_78:\n    tag_79:\n      dup1\n      dup3\n      gt\n      iszero\n      tag_80\n      jumpi\n      0x00\n      dup2\n      0x00\n      swap1\n      sstore\n      pop\n      0x01\n      add\n      jump(tag_79)\n    tag_80:\n      pop\n      swap1\n      jump\t// out\n        /* \"#utility.yul\":7:82   */\n    tag_81:\n        /* \"#utility.yul\":40:46   */\n      0x00\n        /* \"#utility.yul\":73:75   */\n      0x40\n        /* \"#utility.yul\":67:76   */\n      mload\n        /* \"#utility.yul\":57:76   */\n      swap1\n      pop\n        /* \"#utility.yul\":7:82   */\n      swap1\n      jump\t// out\n        /* \"#utility.yul\":88:205   */\n    tag_82:\n        /* \"#utility.yul\":197:198   */\n      0x00\n        /* \"#utility.yul\":194:195   */\n      dup1\n        /* \"#utility.yul\":187:199   */\n      revert\n        /* \"#utility.yul\":211:328   */\n    tag_83:\n        /* \"#utility.yul\":320:321   */\n      0x00\n        /* \"#utility.yul\":317:318   */\n      dup1\n        /* \"#utility.yul\":310:322   */\n      revert\n        /* \"#utility.yul\":334:451   */\n    tag_84:\n        /* \"#utility.yul\":443:444   */\n      0x00\n        /* \"#utility.yul\":440:441   */\n      dup1\n        /* \"#utility.yul\":433:445   */\n      revert\n        /* \"#utility.yul\":457:574   */\n    tag_85:\n        /* \"#utility.yul\":566:567   */\n      0x00\n        /* \"#utility.yul\":563:564   */\n      dup1\n        /* \"#utility.yul\":556:568   */\n      revert\n        /* \"#utility.yul\":580:682   */\n    tag_86:\n        /* \"#utility.yul\":621:627   */\n      0x00\n        /* \"#utility.yul\":672:674   */\n      0x1f\n        /* \"#utility.yul\":668:675   */\n      not\n        /* \"#utility.yul\":663:665   */\n      0x1f\n        /* \"#utility.yul\":656:661   */\n      dup4\n        /* \"#utility.yul\":652:666   */\n      add\n        /* \"#utility.yul\":648:676   */\n      and\n        /* \"#utility.yul\":638:676   */\n      swap1\n      pop\n        /* \"#utility.yul\":580:682   */\n      swap2\n      swap1\n      pop\n      jump\t// out\n        /* \"#utility.yul\":688:868   */\n    tag_87:\n        /* \"#utility.yul\":736:813   */\n      0x4e487b7100000000000000000000000000000000000000000000000000000000\n        /* \"#utility.yul\":733:734   */\n      0x00\n        /* \"#utility.yul\":726:814   */\n      mstore\n        /* \"#utility.yul\":833:837   */\n      0x41\n        /* \"#utility.yul\":830:831   */\n      0x04\n        /* \"#utility.yul\":823:838   */\n      mstore\n        /* \"#utility.yul\":857:861   */\n      0x24\n        /* \"#utility.yul\":854:855   */\n      0x00\n        /* \"#utility.yul\":847:862   */\n      revert\n        /* \"#utility.yul\":874:1155   */\n    tag_88:\n        /* \"#utility.yul\":957:984   */\n      tag_126\n        /* \"#utility.yul\":979:983   */\n      dup3\n        /* \"#utility.yul\":957:984   */\n      tag_86\n      jump\t// in\n    tag_126:\n        /* \"#utility.yul\":949:955   */\n      dup2\n        /* \"#utility.yul\":945:985   */\n      add\n        /* \"#utility.yul\":1087:1093   */\n      dup2\n        /* \"#utility.yul\":1075:1085   */\n      dup2\n        /* \"#utility.yul\":1072:1094   */\n      lt\n        /* \"#utility.yul\":1051:1069   */\n      0xffffffffffffffff\n        /* \"#utility.yul\":1039:1049   */\n      dup3\n        /* \"#utility.yul\":1036:1070   */\n      gt\n        /* \"#utility.yul\":1033:1095   */\n      or\n        /* \"#utility.yul\":1030:1118   */\n      iszero\n      tag_127\n      jumpi\n        /* \"#utility.yul\":1098:1116   */\n      tag_128\n      tag_87\n      jump\t// in\n    tag_128:\n        /* \"#utility.yul\":1030:1118   */\n    tag_127:\n        /* \"#utility.yul\":1138:1148   */\n      dup1\n        /* \"#utility.yul\":1134:1136   */\n      0x40\n        /* \"#utility.yul\":1127:1149   */\n      mstore\n        /* \"#utility.yul\":917:1155   */\n      pop\n        /* \"#utility.yul\":874:1155   */\n      pop\n      pop\n      jump\t// out\n        /* \"#utility.yul\":1161:1290   */\n    tag_89:\n        /* \"#utility.yul\":1195:1201   */\n      0x00\n        /* \"#utility.yul\":1222:1242   */\n      tag_130\n      tag_81\n      jump\t// in\n    tag_130:\n        /* \"#utility.yul\":1212:1242   */\n      swap1\n      pop\n        /* \"#utility.yul\":1251:1284   */\n      tag_131\n        /* \"#utility.yul\":1279:1283   */\n      dup3\n        /* \"#utility.yul\":1271:1277   */\n      dup3\n        /* \"#utility.yul\":1251:1284   */\n      tag_88\n      jump\t// in\n    tag_131:\n        /* \"#utility.yul\":1161:1290   */\n      swap2\n      swap1\n      pop\n      jump\t// out\n        /* \"#utility.yul\":1296:1604   */\n    tag_90:\n        /* \"#utility.yul\":1358:1362   */\n      0x00\n        /* \"#utility.yul\":1448:1466   */\n      0xffffffffffffffff\n        /* \"#utility.yul\":1440:1446   */\n      dup3\n        /* \"#utility.yul\":1437:1467   */\n      gt\n        /* \"#utility.yul\":1434:1490   */\n      iszero\n      tag_133\n      jumpi\n        /* \"#utility.yul\":1470:1488   */\n      tag_134\n      tag_87\n      jump\t// in\n    tag_134:\n        /* \"#utility.yul\":1434:1490   */\n    tag_133:\n        /* \"#utility.yul\":1508:1537   */\n      tag_135\n        /* \"#utility.yul\":1530:1536   */\n      dup3\n        /* \"#utility.yul\":1508:1537   */\n      tag_86\n      jump\t// in\n    tag_135:\n        /* \"#utility.yul\":1500:1537   */\n      swap1\n      pop\n        /* \"#utility.yul\":1592:1596   */\n      0x20\n        /* \"#utility.yul\":1586:1590   */\n      dup2\n        /* \"#utility.yul\":1582:1597   */\n      add\n        /* \"#utility.yul\":1574:1597   */\n      swap1\n      pop\n        /* \"#utility.yul\":1296:1604   */\n      swap2\n      swap1\n      pop\n      jump\t// out\n        /* \"#utility.yul\":1610:1764   */\n    tag_91:\n        /* \"#utility.yul\":1694:1700   */\n      dup3\n        /* \"#utility.yul\":1689:1692   */\n      dup2\n        /* \"#utility.yul\":1684:1687   */\n      dup4\n        /* \"#utility.yul\":1671:1701   */\n      calldatacopy\n        /* \"#utility.yul\":1756:1757   */\n      0x00\n        /* \"#utility.yul\":1747:1753   */\n      dup4\n        /* \"#utility.yul\":1742:1745   */\n      dup4\n        /* \"#utility.yul\":1738:1754   */\n      add\n        /* \"#utility.yul\":1731:1758   */\n      mstore\n        /* \"#utility.yul\":1610:1764   */\n      pop\n      pop\n      pop\n      jump\t// out\n        /* \"#utility.yul\":1770:2182   */\n    tag_92:\n        /* \"#utility.yul\":1848:1853   */\n      0x00\n        /* \"#utility.yul\":1873:1939   */\n      tag_138\n        /* \"#utility.yul\":1889:1938   */\n      tag_139\n        /* \"#utility.yul\":1931:1937   */\n      dup5\n        /* \"#utility.yul\":1889:1938   */\n      tag_90\n      jump\t// in\n    tag_139:\n        /* \"#utility.yul\":1873:1939   */\n      tag_89\n      jump\t// in\n    tag_138:\n        /* \"#utility.yul\":1864:1939   */\n      swap1\n      pop\n        /* \"#utility.yul\":1962:1968   */\n      dup3\n        /* \"#utility.yul\":1955:1960   */\n      dup2\n        /* \"#utility.yul\":1948:1969   */\n      mstore\n        /* \"#utility.yul\":2000:2004   */\n      0x20\n        /* \"#utility.yul\":1993:1998   */\n      dup2\n        /* \"#utility.yul\":1989:2005   */\n      add\n        /* \"#utility.yul\":2038:2041   */\n      dup5\n        /* \"#utility.yul\":2029:2035   */\n      dup5\n        /* \"#utility.yul\":2024:2027   */\n      dup5\n        /* \"#utility.yul\":2020:2036   */\n      add\n        /* \"#utility.yul\":2017:2042   */\n      gt\n        /* \"#utility.yul\":2014:2126   */\n      iszero\n      tag_140\n      jumpi\n        /* \"#utility.yul\":2045:2124   */\n      tag_141\n      tag_85\n      jump\t// in\n    tag_141:\n        /* \"#utility.yul\":2014:2126   */\n    tag_140:\n        /* \"#utility.yul\":2135:2176   */\n      tag_142\n        /* \"#utility.yul\":2169:2175   */\n      dup5\n        /* \"#utility.yul\":2164:2167   */\n      dup3\n        /* \"#utility.yul\":2159:2162   */\n      dup6\n        /* \"#utility.yul\":2135:2176   */\n      tag_91\n      jump\t// in\n    tag_142:\n        /* \"#utility.yul\":1854:2182   */\n      pop\n        /* \"#utility.yul\":1770:2182   */\n      swap4\n      swap3\n      pop\n      pop\n      pop\n      jump\t// out\n        /* \"#utility.yul\":2202:2542   */\n    tag_93:\n        /* \"#utility.yul\":2258:2263   */\n      0x00\n        /* \"#utility.yul\":2307:2310   */\n      dup3\n        /* \"#utility.yul\":2300:2304   */\n      0x1f\n        /* \"#utility.yul\":2292:2298   */\n      dup4\n        /* \"#utility.yul\":2288:2305   */\n      add\n        /* \"#utility.yul\":2284:2311   */\n      slt\n        /* \"#utility.yul\":2274:2396   */\n      tag_144\n      jumpi\n        /* \"#utility.yul\":2315:2394   */\n      tag_145\n      tag_84\n      jump\t// in\n    tag_145:\n        /* \"#utility.yul\":2274:2396   */\n    tag_144:\n        /* \"#utility.yul\":2432:2438   */\n      dup2\n        /* \"#utility.yul\":2419:2439   */\n      calldataload\n        /* \"#utility.yul\":2457:2536   */\n      tag_146\n        /* \"#utility.yul\":2532:2535   */\n      dup5\n        /* \"#utility.yul\":2524:2530   */\n      dup3\n        /* \"#utility.yul\":2517:2521   */\n      0x20\n        /* \"#utility.yul\":2509:2515   */\n      dup7\n        /* \"#utility.yul\":2505:2522   */\n      add\n        /* \"#utility.yul\":2457:2536   */\n      tag_92\n      jump\t// in\n    tag_146:\n        /* \"#utility.yul\":2448:2536   */\n      swap2\n      pop\n        /* \"#utility.yul\":2264:2542   */\n      pop\n        /* \"#utility.yul\":2202:2542   */\n      swap3\n      swap2\n      pop\n      pop\n      jump\t// out\n        /* \"#utility.yul\":2548:2625   */\n    tag_94:\n        /* \"#utility.yul\":2585:2592   */\n      0x00\n        /* \"#utility.yul\":2614:2619   */\n      dup2\n        /* \"#utility.yul\":2603:2619   */\n      swap1\n      pop\n        /* \"#utility.yul\":2548:2625   */\n      swap2\n      swap1\n      pop\n      jump\t// out\n        /* \"#utility.yul\":2631:2753   */\n    tag_95:\n        /* \"#utility.yul\":2704:2728   */\n      tag_149\n        /* \"#utility.yul\":2722:2727   */\n      dup2\n        /* \"#utility.yul\":2704:2728   */\n      tag_94\n      jump\t// in\n    tag_149:\n        /* \"#utility.yul\":2697:2702   */\n      dup2\n        /* \"#utility.yul\":2694:2729   */\n      eq\n        /* \"#utility.yul\":2684:2747   */\n      tag_150\n      jumpi\n        /* \"#utility.yul\":2743:2744   */\n      0x00\n        /* \"#utility.yul\":2740:2741   */\n      dup1\n        /* \"#utility.yul\":2733:2745   */\n      revert\n        /* \"#utility.yul\":2684:2747   */\n    tag_150:\n        /* \"#utility.yul\":2631:2753   */\n      pop\n      jump\t// out\n        /* \"#utility.yul\":2759:2898   */\n    tag_96:\n        /* \"#utility.yul\":2805:2810   */\n      0x00\n        /* \"#utility.yul\":2843:2849   */\n      dup2\n        /* \"#utility.yul\":2830:2850   */\n      calldataload\n        /* \"#utility.yul\":2821:2850   */\n      swap1\n      pop\n        /* \"#utility.yul\":2859:2892   */\n      tag_152\n        /* \"#utility.yul\":2886:2891   */\n      dup2\n        /* \"#utility.yul\":2859:2892   */\n      tag_95\n      jump\t// in\n    tag_152:\n        /* \"#utility.yul\":2759:2898   */\n      swap3\n      swap2\n      pop\n      pop\n      jump\t// out\n        /* \"#utility.yul\":2904:3558   */\n    tag_9:\n        /* \"#utility.yul\":2982:2988   */\n      0x00\n        /* \"#utility.yul\":2990:2996   */\n      dup1\n        /* \"#utility.yul\":3039:3041   */\n      0x40\n        /* \"#utility.yul\":3027:3036   */\n      dup4\n        /* \"#utility.yul\":3018:3025   */\n      dup6\n        /* \"#utility.yul\":3014:3037   */\n      sub\n        /* \"#utility.yul\":3010:3042   */\n      slt\n        /* \"#utility.yul\":3007:3126   */\n      iszero\n      tag_154\n      jumpi\n        /* \"#utility.yul\":3045:3124   */\n      tag_155\n      tag_82\n      jump\t// in\n    tag_155:\n        /* \"#utility.yul\":3007:3126   */\n    tag_154:\n        /* \"#utility.yul\":3193:3194   */\n      0x00\n        /* \"#utility.yul\":3182:3191   */\n      dup4\n        /* \"#utility.yul\":3178:3195   */\n      add\n        /* \"#utility.yul\":3165:3196   */\n      calldataload\n        /* \"#utility.yul\":3223:3241   */\n      0xffffffffffffffff\n        /* \"#utility.yul\":3215:3221   */\n      dup2\n        /* \"#utility.yul\":3212:3242   */\n      gt\n        /* \"#utility.yul\":3209:3326   */\n      iszero\n      tag_156\n      jumpi\n        /* \"#utility.yul\":3245:3324   */\n      tag_157\n      tag_83\n      jump\t// in\n    tag_157:\n        /* \"#utility.yul\":3209:3326   */\n    tag_156:\n        /* \"#utility.yul\":3350:3413   */\n      tag_158\n        /* \"#utility.yul\":3405:3412   */\n      dup6\n        /* \"#utility.yul\":3396:3402   */\n      dup3\n        /* \"#utility.yul\":3385:3394   */\n      dup7\n        /* \"#utility.yul\":3381:3403   */\n      add\n        /* \"#utility.yul\":3350:3413   */\n      tag_93\n      jump\t// in\n    tag_158:\n        /* \"#utility.yul\":3340:3413   */\n      swap3\n      pop\n        /* \"#utility.yul\":3136:3423   */\n      pop\n        /* \"#utility.yul\":3462:3464   */\n      0x20\n        /* \"#utility.yul\":3488:3541   */\n      tag_159\n        /* \"#utility.yul\":3533:3540   */\n      dup6\n        /* \"#utility.yul\":3524:3530   */\n      dup3\n        /* \"#utility.yul\":3513:3522   */\n      dup7\n        /* \"#utility.yul\":3509:3531   */\n      add\n        /* \"#utility.yul\":3488:3541   */\n      tag_96\n      jump\t// in\n    tag_159:\n        /* \"#utility.yul\":3478:3541   */\n      swap2\n      pop\n        /* \"#utility.yul\":3433:3551   */\n      pop\n        /* \"#utility.yul\":2904:3558   */\n      swap3\n      pop\n      swap3\n      swap1\n      pop\n      jump\t// out\n        /* \"#utility.yul\":3564:3682   */\n    tag_97:\n        /* \"#utility.yul\":3651:3675   */\n      tag_161\n        /* \"#utility.yul\":3669:3674   */\n      dup2\n        /* \"#utility.yul\":3651:3675   */\n      tag_94\n      jump\t// in\n    tag_161:\n        /* \"#utility.yul\":3646:3649   */\n      dup3\n        /* \"#utility.yul\":3639:3676   */\n      mstore\n        /* \"#utility.yul\":3564:3682   */\n      pop\n      pop\n      jump\t// out\n        /* \"#utility.yul\":3688:3787   */\n    tag_98:\n        /* \"#utility.yul\":3740:3746   */\n      0x00\n        /* \"#utility.yul\":3774:3779   */\n      dup2\n        /* \"#utility.yul\":3768:3780   */\n      mload\n        /* \"#utility.yul\":3758:3780   */\n      swap1\n      pop\n        /* \"#utility.yul\":3688:3787   */\n      swap2\n      swap1\n      pop\n      jump\t// out\n        /* \"#utility.yul\":3793:3962   */\n    tag_99:\n        /* \"#utility.yul\":3877:3888   */\n      0x00\n        /* \"#utility.yul\":3911:3917   */\n      dup3\n        /* \"#utility.yul\":3906:3909   */\n      dup3\n        /* \"#utility.yul\":3899:3918   */\n      mstore\n        /* \"#utility.yul\":3951:3955   */\n      0x20\n        /* \"#utility.yul\":3946:3949   */\n      dup3\n        /* \"#utility.yul\":3942:3956   */\n      add\n        /* \"#utility.yul\":3927:3956   */\n      swap1\n      pop\n        /* \"#utility.yul\":3793:3962   */\n      swap3\n      swap2\n      pop\n      pop\n      jump\t// out\n        /* \"#utility.yul\":3968:4275   */\n    tag_100:\n        /* \"#utility.yul\":4036:4037   */\n      0x00\n        /* \"#utility.yul\":4046:4159   */\n    tag_165:\n        /* \"#utility.yul\":4060:4066   */\n      dup4\n        /* \"#utility.yul\":4057:4058   */\n      dup2\n        /* \"#utility.yul\":4054:4067   */\n      lt\n        /* \"#utility.yul\":4046:4159   */\n      iszero\n      tag_167\n      jumpi\n        /* \"#utility.yul\":4145:4146   */\n      dup1\n        /* \"#utility.yul\":4140:4143   */\n      dup3\n        /* \"#utility.yul\":4136:4147   */\n      add\n        /* \"#utility.yul\":4130:4148   */\n      mload\n        /* \"#utility.yul\":4126:4127   */\n      dup2\n        /* \"#utility.yul\":4121:4124   */\n      dup5\n        /* \"#utility.yul\":4117:4128   */\n      add\n        /* \"#utility.yul\":4110:4149   */\n      mstore\n        /* \"#utility.yul\":4082:4084   */\n      0x20\n        /* \"#utility.yul\":4079:4080   */\n      dup2\n        /* \"#utility.yul\":4075:4085   */\n      add\n        /* \"#utility.yul\":4070:4085   */\n      swap1\n      pop\n        /* \"#utility.yul\":4046:4159   */\n      jump(tag_165)\n    tag_167:\n        /* \"#utility.yul\":4177:4183   */\n      dup4\n        /* \"#utility.yul\":4174:4175   */\n      dup2\n        /* \"#utility.yul\":4171:4184   */\n      gt\n        /* \"#utility.yul\":4168:4269   */\n      iszero\n      tag_168\n      jumpi\n        /* \"#utility.yul\":4257:4258   */\n      0x00\n        /* \"#utility.yul\":4248:4254   */\n      dup5\n        /* \"#utility.yul\":4243:4246   */\n      dup5\n        /* \"#utility.yul\":4239:4255   */\n      add\n        /* \"#utility.yul\":4232:4259   */\n      mstore\n        /* \"#utility.yul\":4168:4269   */\n    tag_168:\n        /* \"#utility.yul\":4017:4275   */\n      pop\n        /* \"#utility.yul\":3968:4275   */\n      pop\n      pop\n      pop\n      jump\t// out\n        /* \"#utility.yul\":4281:4645   */\n    tag_101:\n        /* \"#utility.yul\":4369:4372   */\n      0x00\n        /* \"#utility.yul\":4397:4436   */\n      tag_170\n        /* \"#utility.yul\":4430:4435   */\n      dup3\n        /* \"#utility.yul\":4397:4436   */\n      tag_98\n      jump\t// in\n    tag_170:\n        /* \"#utility.yul\":4452:4523   */\n      tag_171\n        /* \"#utility.yul\":4516:4522   */\n      dup2\n        /* \"#utility.yul\":4511:4514   */\n      dup6\n        /* \"#utility.yul\":4452:4523   */\n      tag_99\n      jump\t// in\n    tag_171:\n        /* \"#utility.yul\":4445:4523   */\n      swap4\n      pop\n        /* \"#utility.yul\":4532:4584   */\n      tag_172\n        /* \"#utility.yul\":4577:4583   */\n      dup2\n        /* \"#utility.yul\":4572:4575   */\n      dup6\n        /* \"#utility.yul\":4565:4569   */\n      0x20\n        /* \"#utility.yul\":4558:4563   */\n      dup7\n        /* \"#utility.yul\":4554:4570   */\n      add\n        /* \"#utility.yul\":4532:4584   */\n      tag_100\n      jump\t// in\n    tag_172:\n        /* \"#utility.yul\":4609:4638   */\n      tag_173\n        /* \"#utility.yul\":4631:4637   */\n      dup2\n        /* \"#utility.yul\":4609:4638   */\n      tag_86\n      jump\t// in\n    tag_173:\n        /* \"#utility.yul\":4604:4607   */\n      dup5\n        /* \"#utility.yul\":4600:4639   */\n      add\n        /* \"#utility.yul\":4593:4639   */\n      swap2\n      pop\n        /* \"#utility.yul\":4373:4645   */\n      pop\n        /* \"#utility.yul\":4281:4645   */\n      swap3\n      swap2\n      pop\n      pop\n      jump\t// out\n        /* \"#utility.yul\":4651:5275   */\n    tag_12:\n        /* \"#utility.yul\":4840:4844   */\n      0x00\n        /* \"#utility.yul\":4878:4880   */\n      0x60\n        /* \"#utility.yul\":4867:4876   */\n      dup3\n        /* \"#utility.yul\":4863:4881   */\n      add\n        /* \"#utility.yul\":4855:4881   */\n      swap1\n      pop\n        /* \"#utility.yul\":4891:4962   */\n      tag_175\n        /* \"#utility.yul\":4959:4960   */\n      0x00\n        /* \"#utility.yul\":4948:4957   */\n      dup4\n        /* \"#utility.yul\":4944:4961   */\n      add\n        /* \"#utility.yul\":4935:4941   */\n      dup7\n        /* \"#utility.yul\":4891:4962   */\n      tag_97\n      jump\t// in\n    tag_175:\n        /* \"#utility.yul\":5009:5018   */\n      dup2\n        /* \"#utility.yul\":5003:5007   */\n      dup2\n        /* \"#utility.yul\":4999:5019   */\n      sub\n        /* \"#utility.yul\":4994:4996   */\n      0x20\n        /* \"#utility.yul\":4983:4992   */\n      dup4\n        /* \"#utility.yul\":4979:4997   */\n      add\n        /* \"#utility.yul\":4972:5020   */\n      mstore\n        /* \"#utility.yul\":5037:5115   */\n      tag_176\n        /* \"#utility.yul\":5110:5114   */\n      dup2\n        /* \"#utility.yul\":5101:5107   */\n      dup6\n        /* \"#utility.yul\":5037:5115   */\n      tag_101\n      jump\t// in\n    tag_176:\n        /* \"#utility.yul\":5029:5115   */\n      swap1\n      pop\n        /* \"#utility.yul\":5162:5171   */\n      dup2\n        /* \"#utility.yul\":5156:5160   */\n      dup2\n        /* \"#utility.yul\":5152:5172   */\n      sub\n        /* \"#utility.yul\":5147:5149   */\n      0x40\n        /* \"#utility.yul\":5136:5145   */\n      dup4\n        /* \"#utility.yul\":5132:5150   */\n      add\n        /* \"#utility.yul\":5125:5173   */\n      mstore\n        /* \"#utility.yul\":5190:5268   */\n      tag_177\n        /* \"#utility.yul\":5263:5267   */\n      dup2\n        /* \"#utility.yul\":5254:5260   */\n      dup5\n        /* \"#utility.yul\":5190:5268   */\n      tag_101\n      jump\t// in\n    tag_177:\n        /* \"#utility.yul\":5182:5268   */\n      swap1\n      pop\n        /* \"#utility.yul\":4651:5275   */\n      swap5\n      swap4\n      pop\n      pop\n      pop\n      pop\n      jump\t// out\n        /* \"#utility.yul\":5281:6586   */\n    tag_15:\n        /* \"#utility.yul\":5397:5403   */\n      0x00\n        /* \"#utility.yul\":5405:5411   */\n      dup1\n        /* \"#utility.yul\":5413:5419   */\n      0x00\n        /* \"#utility.yul\":5421:5427   */\n      dup1\n        /* \"#utility.yul\":5470:5473   */\n      0x80\n        /* \"#utility.yul\":5458:5467   */\n      dup6\n        /* \"#utility.yul\":5449:5456   */\n      dup8\n        /* \"#utility.yul\":5445:5468   */\n      sub\n        /* \"#utility.yul\":5441:5474   */\n      slt\n        /* \"#utility.yul\":5438:5558   */\n      iszero\n      tag_179\n      jumpi\n        /* \"#utility.yul\":5477:5556   */\n      tag_180\n      tag_82\n      jump\t// in\n    tag_180:\n        /* \"#utility.yul\":5438:5558   */\n    tag_179:\n        /* \"#utility.yul\":5625:5626   */\n      0x00\n        /* \"#utility.yul\":5614:5623   */\n      dup6\n        /* \"#utility.yul\":5610:5627   */\n      add\n        /* \"#utility.yul\":5597:5628   */\n      calldataload\n        /* \"#utility.yul\":5655:5673   */\n      0xffffffffffffffff\n        /* \"#utility.yul\":5647:5653   */\n      dup2\n        /* \"#utility.yul\":5644:5674   */\n      gt\n        /* \"#utility.yul\":5641:5758   */\n      iszero\n      tag_181\n      jumpi\n        /* \"#utility.yul\":5677:5756   */\n      tag_182\n      tag_83\n      jump\t// in\n    tag_182:\n        /* \"#utility.yul\":5641:5758   */\n    tag_181:\n        /* \"#utility.yul\":5782:5845   */\n      tag_183\n        /* \"#utility.yul\":5837:5844   */\n      dup8\n        /* \"#utility.yul\":5828:5834   */\n      dup3\n        /* \"#utility.yul\":5817:5826   */\n      dup9\n        /* \"#utility.yul\":5813:5835   */\n      add\n        /* \"#utility.yul\":5782:5845   */\n      tag_93\n      jump\t// in\n    tag_183:\n        /* \"#utility.yul\":5772:5845   */\n      swap5\n      pop\n        /* \"#utility.yul\":5568:5855   */\n      pop\n        /* \"#utility.yul\":5894:5896   */\n      0x20\n        /* \"#utility.yul\":5920:5973   */\n      tag_184\n        /* \"#utility.yul\":5965:5972   */\n      dup8\n        /* \"#utility.yul\":5956:5962   */\n      dup3\n        /* \"#utility.yul\":5945:5954   */\n      dup9\n        /* \"#utility.yul\":5941:5963   */\n      add\n        /* \"#utility.yul\":5920:5973   */\n      tag_96\n      jump\t// in\n    tag_184:\n        /* \"#utility.yul\":5910:5973   */\n      swap4\n      pop\n        /* \"#utility.yul\":5865:5983   */\n      pop\n        /* \"#utility.yul\":6050:6052   */\n      0x40\n        /* \"#utility.yul\":6039:6048   */\n      dup6\n        /* \"#utility.yul\":6035:6053   */\n      add\n        /* \"#utility.yul\":6022:6054   */\n      calldataload\n        /* \"#utility.yul\":6081:6099   */\n      0xffffffffffffffff\n        /* \"#utility.yul\":6073:6079   */\n      dup2\n        /* \"#utility.yul\":6070:6100   */\n      gt\n        /* \"#utility.yul\":6067:6184   */\n      iszero\n      tag_185\n      jumpi\n        /* \"#utility.yul\":6103:6182   */\n      tag_186\n      tag_83\n      jump\t// in\n    tag_186:\n        /* \"#utility.yul\":6067:6184   */\n    tag_185:\n        /* \"#utility.yul\":6208:6271   */\n      tag_187\n        /* \"#utility.yul\":6263:6270   */\n      dup8\n        /* \"#utility.yul\":6254:6260   */\n      dup3\n        /* \"#utility.yul\":6243:6252   */\n      dup9\n        /* \"#utility.yul\":6239:6261   */\n      add\n        /* \"#utility.yul\":6208:6271   */\n      tag_93\n      jump\t// in\n    tag_187:\n        /* \"#utility.yul\":6198:6271   */\n      swap3\n      pop\n        /* \"#utility.yul\":5993:6281   */\n      pop\n        /* \"#utility.yul\":6348:6350   */\n      0x60\n        /* \"#utility.yul\":6337:6346   */\n      dup6\n        /* \"#utility.yul\":6333:6351   */\n      add\n        /* \"#utility.yul\":6320:6352   */\n      calldataload\n        /* \"#utility.yul\":6379:6397   */\n      0xffffffffffffffff\n        /* \"#utility.yul\":6371:6377   */\n      dup2\n        /* \"#utility.yul\":6368:6398   */\n      gt\n        /* \"#utility.yul\":6365:6482   */\n      iszero\n      tag_188\n      jumpi\n        /* \"#utility.yul\":6401:6480   */\n      tag_189\n      tag_83\n      jump\t// in\n    tag_189:\n        /* \"#utility.yul\":6365:6482   */\n    tag_188:\n        /* \"#utility.yul\":6506:6569   */\n      tag_190\n        /* \"#utility.yul\":6561:6568   */\n      dup8\n        /* \"#utility.yul\":6552:6558   */\n      dup3\n        /* \"#utility.yul\":6541:6550   */\n      dup9\n        /* \"#utility.yul\":6537:6559   */\n      add\n        /* \"#utility.yul\":6506:6569   */\n      tag_93\n      jump\t// in\n    tag_190:\n        /* \"#utility.yul\":6496:6569   */\n      swap2\n      pop\n        /* \"#utility.yul\":6291:6579   */\n      pop\n        /* \"#utility.yul\":5281:6586   */\n      swap3\n      swap6\n      swap2\n      swap5\n      pop\n      swap3\n      pop\n      jump\t// out\n        /* \"#utility.yul\":6592:6682   */\n    tag_102:\n        /* \"#utility.yul\":6626:6633   */\n      0x00\n        /* \"#utility.yul\":6669:6674   */\n      dup2\n        /* \"#utility.yul\":6662:6675   */\n      iszero\n        /* \"#utility.yul\":6655:6676   */\n      iszero\n        /* \"#utility.yul\":6644:6676   */\n      swap1\n      pop\n        /* \"#utility.yul\":6592:6682   */\n      swap2\n      swap1\n      pop\n      jump\t// out\n        /* \"#utility.yul\":6688:6797   */\n    tag_103:\n        /* \"#utility.yul\":6769:6790   */\n      tag_193\n        /* \"#utility.yul\":6784:6789   */\n      dup2\n        /* \"#utility.yul\":6769:6790   */\n      tag_102\n      jump\t// in\n    tag_193:\n        /* \"#utility.yul\":6764:6767   */\n      dup3\n        /* \"#utility.yul\":6757:6791   */\n      mstore\n        /* \"#utility.yul\":6688:6797   */\n      pop\n      pop\n      jump\t// out\n        /* \"#utility.yul\":6803:7013   */\n    tag_18:\n        /* \"#utility.yul\":6890:6894   */\n      0x00\n        /* \"#utility.yul\":6928:6930   */\n      0x20\n        /* \"#utility.yul\":6917:6926   */\n      dup3\n        /* \"#utility.yul\":6913:6931   */\n      add\n        /* \"#utility.yul\":6905:6931   */\n      swap1\n      pop\n        /* \"#utility.yul\":6941:7006   */\n      tag_195\n        /* \"#utility.yul\":7003:7004   */\n      0x00\n        /* \"#utility.yul\":6992:7001   */\n      dup4\n        /* \"#utility.yul\":6988:7005   */\n      add\n        /* \"#utility.yul\":6979:6985   */\n      dup5\n        /* \"#utility.yul\":6941:7006   */\n      tag_103\n      jump\t// in\n    tag_195:\n        /* \"#utility.yul\":6803:7013   */\n      swap3\n      swap2\n      pop\n      pop\n      jump\t// out\n        /* \"#utility.yul\":7019:7528   */\n    tag_22:\n        /* \"#utility.yul\":7088:7094   */\n      0x00\n        /* \"#utility.yul\":7137:7139   */\n      0x20\n        /* \"#utility.yul\":7125:7134   */\n      dup3\n        /* \"#utility.yul\":7116:7123   */\n      dup5\n        /* \"#utility.yul\":7112:7135   */\n      sub\n        /* \"#utility.yul\":7108:7140   */\n      slt\n        /* \"#utility.yul\":7105:7224   */\n      iszero\n      tag_197\n      jumpi\n        /* \"#utility.yul\":7143:7222   */\n      tag_198\n      tag_82\n      jump\t// in\n    tag_198:\n        /* \"#utility.yul\":7105:7224   */\n    tag_197:\n        /* \"#utility.yul\":7291:7292   */\n      0x00\n        /* \"#utility.yul\":7280:7289   */\n      dup3\n        /* \"#utility.yul\":7276:7293   */\n      add\n        /* \"#utility.yul\":7263:7294   */\n      calldataload\n        /* \"#utility.yul\":7321:7339   */\n      0xffffffffffffffff\n        /* \"#utility.yul\":7313:7319   */\n      dup2\n        /* \"#utility.yul\":7310:7340   */\n      gt\n        /* \"#utility.yul\":7307:7424   */\n      iszero\n      tag_199\n      jumpi\n        /* \"#utility.yul\":7343:7422   */\n      tag_200\n      tag_83\n      jump\t// in\n    tag_200:\n        /* \"#utility.yul\":7307:7424   */\n    tag_199:\n        /* \"#utility.yul\":7448:7511   */\n      tag_201\n        /* \"#utility.yul\":7503:7510   */\n      dup5\n        /* \"#utility.yul\":7494:7500   */\n      dup3\n        /* \"#utility.yul\":7483:7492   */\n      dup6\n        /* \"#utility.yul\":7479:7501   */\n      add\n        /* \"#utility.yul\":7448:7511   */\n      tag_93\n      jump\t// in\n    tag_201:\n        /* \"#utility.yul\":7438:7511   */\n      swap2\n      pop\n        /* \"#utility.yul\":7234:7521   */\n      pop\n        /* \"#utility.yul\":7019:7528   */\n      swap3\n      swap2\n      pop\n      pop\n      jump\t// out\n        /* \"#utility.yul\":7534:7667   */\n    tag_104:\n        /* \"#utility.yul\":7620:7626   */\n      0x00\n        /* \"#utility.yul\":7654:7659   */\n      dup2\n        /* \"#utility.yul\":7648:7660   */\n      mload\n        /* \"#utility.yul\":7638:7660   */\n      swap1\n      pop\n        /* \"#utility.yul\":7534:7667   */\n      swap2\n      swap1\n      pop\n      jump\t// out\n        /* \"#utility.yul\":7673:7876   */\n    tag_105:\n        /* \"#utility.yul\":7791:7802   */\n      0x00\n        /* \"#utility.yul\":7825:7831   */\n      dup3\n        /* \"#utility.yul\":7820:7823   */\n      dup3\n        /* \"#utility.yul\":7813:7832   */\n      mstore\n        /* \"#utility.yul\":7865:7869   */\n      0x20\n        /* \"#utility.yul\":7860:7863   */\n      dup3\n        /* \"#utility.yul\":7856:7870   */\n      add\n        /* \"#utility.yul\":7841:7870   */\n      swap1\n      pop\n        /* \"#utility.yul\":7673:7876   */\n      swap3\n      swap2\n      pop\n      pop\n      jump\t// out\n        /* \"#utility.yul\":7882:8033   */\n    tag_106:\n        /* \"#utility.yul\":7968:7972   */\n      0x00\n        /* \"#utility.yul\":7991:7994   */\n      dup2\n        /* \"#utility.yul\":7983:7994   */\n      swap1\n      pop\n        /* \"#utility.yul\":8021:8025   */\n      0x20\n        /* \"#utility.yul\":8016:8019   */\n      dup3\n        /* \"#utility.yul\":8012:8026   */\n      add\n        /* \"#utility.yul\":8004:8026   */\n      swap1\n      pop\n        /* \"#utility.yul\":7882:8033   */\n      swap2\n      swap1\n      pop\n      jump\t// out\n        /* \"#utility.yul\":8039:8147   */\n    tag_107:\n        /* \"#utility.yul\":8116:8140   */\n      tag_206\n        /* \"#utility.yul\":8134:8139   */\n      dup2\n        /* \"#utility.yul\":8116:8140   */\n      tag_94\n      jump\t// in\n    tag_206:\n        /* \"#utility.yul\":8111:8114   */\n      dup3\n        /* \"#utility.yul\":8104:8141   */\n      mstore\n        /* \"#utility.yul\":8039:8147   */\n      pop\n      pop\n      jump\t// out\n        /* \"#utility.yul\":8153:8312   */\n    tag_108:\n        /* \"#utility.yul\":8227:8238   */\n      0x00\n        /* \"#utility.yul\":8261:8267   */\n      dup3\n        /* \"#utility.yul\":8256:8259   */\n      dup3\n        /* \"#utility.yul\":8249:8268   */\n      mstore\n        /* \"#utility.yul\":8301:8305   */\n      0x20\n        /* \"#utility.yul\":8296:8299   */\n      dup3\n        /* \"#utility.yul\":8292:8306   */\n      add\n        /* \"#utility.yul\":8277:8306   */\n      swap1\n      pop\n        /* \"#utility.yul\":8153:8312   */\n      swap3\n      swap2\n      pop\n      pop\n      jump\t// out\n        /* \"#utility.yul\":8318:8662   */\n    tag_109:\n        /* \"#utility.yul\":8396:8399   */\n      0x00\n        /* \"#utility.yul\":8424:8463   */\n      tag_209\n        /* \"#utility.yul\":8457:8462   */\n      dup3\n        /* \"#utility.yul\":8424:8463   */\n      tag_98\n      jump\t// in\n    tag_209:\n        /* \"#utility.yul\":8479:8540   */\n      tag_210\n        /* \"#utility.yul\":8533:8539   */\n      dup2\n        /* \"#utility.yul\":8528:8531   */\n      dup6\n        /* \"#utility.yul\":8479:8540   */\n      tag_108\n      jump\t// in\n    tag_210:\n        /* \"#utility.yul\":8472:8540   */\n      swap4\n      pop\n        /* \"#utility.yul\":8549:8601   */\n      tag_211\n        /* \"#utility.yul\":8594:8600   */\n      dup2\n        /* \"#utility.yul\":8589:8592   */\n      dup6\n        /* \"#utility.yul\":8582:8586   */\n      0x20\n        /* \"#utility.yul\":8575:8580   */\n      dup7\n        /* \"#utility.yul\":8571:8587   */\n      add\n        /* \"#utility.yul\":8549:8601   */\n      tag_100\n      jump\t// in\n    tag_211:\n        /* \"#utility.yul\":8626:8655   */\n      tag_212\n        /* \"#utility.yul\":8648:8654   */\n      dup2\n        /* \"#utility.yul\":8626:8655   */\n      tag_86\n      jump\t// in\n    tag_212:\n        /* \"#utility.yul\":8621:8624   */\n      dup5\n        /* \"#utility.yul\":8617:8656   */\n      add\n        /* \"#utility.yul\":8610:8656   */\n      swap2\n      pop\n        /* \"#utility.yul\":8400:8662   */\n      pop\n        /* \"#utility.yul\":8318:8662   */\n      swap3\n      swap2\n      pop\n      pop\n      jump\t// out\n        /* \"#utility.yul\":8724:9562   */\n    tag_110:\n        /* \"#utility.yul\":8821:8824   */\n      0x00\n        /* \"#utility.yul\":8857:8861   */\n      0x60\n        /* \"#utility.yul\":8852:8855   */\n      dup4\n        /* \"#utility.yul\":8848:8862   */\n      add\n        /* \"#utility.yul\":8946:8950   */\n      0x00\n        /* \"#utility.yul\":8939:8944   */\n      dup4\n        /* \"#utility.yul\":8935:8951   */\n      add\n        /* \"#utility.yul\":8929:8952   */\n      mload\n        /* \"#utility.yul\":8965:9028   */\n      tag_214\n        /* \"#utility.yul\":9022:9026   */\n      0x00\n        /* \"#utility.yul\":9017:9020   */\n      dup7\n        /* \"#utility.yul\":9013:9027   */\n      add\n        /* \"#utility.yul\":8999:9011   */\n      dup3\n        /* \"#utility.yul\":8965:9028   */\n      tag_107\n      jump\t// in\n    tag_214:\n        /* \"#utility.yul\":8872:9038   */\n      pop\n        /* \"#utility.yul\":9122:9126   */\n      0x20\n        /* \"#utility.yul\":9115:9120   */\n      dup4\n        /* \"#utility.yul\":9111:9127   */\n      add\n        /* \"#utility.yul\":9105:9128   */\n      mload\n        /* \"#utility.yul\":9175:9178   */\n      dup5\n        /* \"#utility.yul\":9169:9173   */\n      dup3\n        /* \"#utility.yul\":9165:9179   */\n      sub\n        /* \"#utility.yul\":9158:9162   */\n      0x20\n        /* \"#utility.yul\":9153:9156   */\n      dup7\n        /* \"#utility.yul\":9149:9163   */\n      add\n        /* \"#utility.yul\":9142:9180   */\n      mstore\n        /* \"#utility.yul\":9201:9274   */\n      tag_215\n        /* \"#utility.yul\":9269:9273   */\n      dup3\n        /* \"#utility.yul\":9255:9267   */\n      dup3\n        /* \"#utility.yul\":9201:9274   */\n      tag_109\n      jump\t// in\n    tag_215:\n        /* \"#utility.yul\":9193:9274   */\n      swap2\n      pop\n        /* \"#utility.yul\":9048:9285   */\n      pop\n        /* \"#utility.yul\":9372:9376   */\n      0x40\n        /* \"#utility.yul\":9365:9370   */\n      dup4\n        /* \"#utility.yul\":9361:9377   */\n      add\n        /* \"#utility.yul\":9355:9378   */\n      mload\n        /* \"#utility.yul\":9425:9428   */\n      dup5\n        /* \"#utility.yul\":9419:9423   */\n      dup3\n        /* \"#utility.yul\":9415:9429   */\n      sub\n        /* \"#utility.yul\":9408:9412   */\n      0x40\n        /* \"#utility.yul\":9403:9406   */\n      dup7\n        /* \"#utility.yul\":9399:9413   */\n      add\n        /* \"#utility.yul\":9392:9430   */\n      mstore\n        /* \"#utility.yul\":9451:9524   */\n      tag_216\n        /* \"#utility.yul\":9519:9523   */\n      dup3\n        /* \"#utility.yul\":9505:9517   */\n      dup3\n        /* \"#utility.yul\":9451:9524   */\n      tag_109\n      jump\t// in\n    tag_216:\n        /* \"#utility.yul\":9443:9524   */\n      swap2\n      pop\n        /* \"#utility.yul\":9295:9535   */\n      pop\n        /* \"#utility.yul\":9552:9556   */\n      dup1\n        /* \"#utility.yul\":9545:9556   */\n      swap2\n      pop\n        /* \"#utility.yul\":8826:9562   */\n      pop\n        /* \"#utility.yul\":8724:9562   */\n      swap3\n      swap2\n      pop\n      pop\n      jump\t// out\n        /* \"#utility.yul\":9568:9800   */\n    tag_111:\n        /* \"#utility.yul\":9675:9685   */\n      0x00\n        /* \"#utility.yul\":9710:9794   */\n      tag_218\n        /* \"#utility.yul\":9790:9793   */\n      dup4\n        /* \"#utility.yul\":9782:9788   */\n      dup4\n        /* \"#utility.yul\":9710:9794   */\n      tag_110\n      jump\t// in\n    tag_218:\n        /* \"#utility.yul\":9696:9794   */\n      swap1\n      pop\n        /* \"#utility.yul\":9568:9800   */\n      swap3\n      swap2\n      pop\n      pop\n      jump\t// out\n        /* \"#utility.yul\":9806:9938   */\n    tag_112:\n        /* \"#utility.yul\":9895:9899   */\n      0x00\n        /* \"#utility.yul\":9927:9931   */\n      0x20\n        /* \"#utility.yul\":9922:9925   */\n      dup3\n        /* \"#utility.yul\":9918:9932   */\n      add\n        /* \"#utility.yul\":9910:9932   */\n      swap1\n      pop\n        /* \"#utility.yul\":9806:9938   */\n      swap2\n      swap1\n      pop\n      jump\t// out\n        /* \"#utility.yul\":10004:11067   */\n    tag_113:\n        /* \"#utility.yul\":10161:10164   */\n      0x00\n        /* \"#utility.yul\":10190:10263   */\n      tag_221\n        /* \"#utility.yul\":10257:10262   */\n      dup3\n        /* \"#utility.yul\":10190:10263   */\n      tag_104\n      jump\t// in\n    tag_221:\n        /* \"#utility.yul\":10279:10384   */\n      tag_222\n        /* \"#utility.yul\":10377:10383   */\n      dup2\n        /* \"#utility.yul\":10372:10375   */\n      dup6\n        /* \"#utility.yul\":10279:10384   */\n      tag_105\n      jump\t// in\n    tag_222:\n        /* \"#utility.yul\":10272:10384   */\n      swap4\n      pop\n        /* \"#utility.yul\":10410:10413   */\n      dup4\n        /* \"#utility.yul\":10455:10459   */\n      0x20\n        /* \"#utility.yul\":10447:10453   */\n      dup3\n        /* \"#utility.yul\":10443:10460   */\n      mul\n        /* \"#utility.yul\":10438:10441   */\n      dup6\n        /* \"#utility.yul\":10434:10461   */\n      add\n        /* \"#utility.yul\":10485:10560   */\n      tag_223\n        /* \"#utility.yul\":10554:10559   */\n      dup6\n        /* \"#utility.yul\":10485:10560   */\n      tag_106\n      jump\t// in\n    tag_223:\n        /* \"#utility.yul\":10583:10590   */\n      dup1\n        /* \"#utility.yul\":10614:10615   */\n      0x00\n        /* \"#utility.yul\":10599:11022   */\n    tag_224:\n        /* \"#utility.yul\":10624:10630   */\n      dup6\n        /* \"#utility.yul\":10621:10622   */\n      dup2\n        /* \"#utility.yul\":10618:10631   */\n      lt\n        /* \"#utility.yul\":10599:11022   */\n      iszero\n      tag_226\n      jumpi\n        /* \"#utility.yul\":10695:10704   */\n      dup5\n        /* \"#utility.yul\":10689:10693   */\n      dup5\n        /* \"#utility.yul\":10685:10705   */\n      sub\n        /* \"#utility.yul\":10680:10683   */\n      dup10\n        /* \"#utility.yul\":10673:10706   */\n      mstore\n        /* \"#utility.yul\":10746:10752   */\n      dup2\n        /* \"#utility.yul\":10740:10753   */\n      mload\n        /* \"#utility.yul\":10774:10876   */\n      tag_227\n        /* \"#utility.yul\":10871:10875   */\n      dup6\n        /* \"#utility.yul\":10856:10869   */\n      dup3\n        /* \"#utility.yul\":10774:10876   */\n      tag_111\n      jump\t// in\n    tag_227:\n        /* \"#utility.yul\":10766:10876   */\n      swap5\n      pop\n        /* \"#utility.yul\":10899:10978   */\n      tag_228\n        /* \"#utility.yul\":10971:10977   */\n      dup4\n        /* \"#utility.yul\":10899:10978   */\n      tag_112\n      jump\t// in\n    tag_228:\n        /* \"#utility.yul\":10889:10978   */\n      swap3\n      pop\n        /* \"#utility.yul\":11007:11011   */\n      0x20\n        /* \"#utility.yul\":11002:11005   */\n      dup11\n        /* \"#utility.yul\":10998:11012   */\n      add\n        /* \"#utility.yul\":10991:11012   */\n      swap10\n      pop\n        /* \"#utility.yul\":10659:11022   */\n      pop\n        /* \"#utility.yul\":10646:10647   */\n      0x01\n        /* \"#utility.yul\":10643:10644   */\n      dup2\n        /* \"#utility.yul\":10639:10648   */\n      add\n        /* \"#utility.yul\":10634:10648   */\n      swap1\n      pop\n        /* \"#utility.yul\":10599:11022   */\n      jump(tag_224)\n    tag_226:\n        /* \"#utility.yul\":10603:10617   */\n      pop\n        /* \"#utility.yul\":11038:11042   */\n      dup3\n        /* \"#utility.yul\":11031:11042   */\n      swap8\n      pop\n        /* \"#utility.yul\":11058:11061   */\n      dup8\n        /* \"#utility.yul\":11051:11061   */\n      swap6\n      pop\n        /* \"#utility.yul\":10166:11067   */\n      pop\n      pop\n      pop\n      pop\n      pop\n        /* \"#utility.yul\":10004:11067   */\n      swap3\n      swap2\n      pop\n      pop\n      jump\t// out\n        /* \"#utility.yul\":11073:11522   */\n    tag_25:\n        /* \"#utility.yul\":11254:11258   */\n      0x00\n        /* \"#utility.yul\":11292:11294   */\n      0x20\n        /* \"#utility.yul\":11281:11290   */\n      dup3\n        /* \"#utility.yul\":11277:11295   */\n      add\n        /* \"#utility.yul\":11269:11295   */\n      swap1\n      pop\n        /* \"#utility.yul\":11341:11350   */\n      dup2\n        /* \"#utility.yul\":11335:11339   */\n      dup2\n        /* \"#utility.yul\":11331:11351   */\n      sub\n        /* \"#utility.yul\":11327:11328   */\n      0x00\n        /* \"#utility.yul\":11316:11325   */\n      dup4\n        /* \"#utility.yul\":11312:11329   */\n      add\n        /* \"#utility.yul\":11305:11352   */\n      mstore\n        /* \"#utility.yul\":11369:11515   */\n      tag_230\n        /* \"#utility.yul\":11510:11514   */\n      dup2\n        /* \"#utility.yul\":11501:11507   */\n      dup5\n        /* \"#utility.yul\":11369:11515   */\n      tag_113\n      jump\t// in\n    tag_230:\n        /* \"#utility.yul\":11361:11515   */\n      swap1\n      pop\n        /* \"#utility.yul\":11073:11522   */\n      swap3\n      swap2\n      pop\n      pop\n      jump\t// out\n        /* \"#utility.yul\":11528:11708   */\n    tag_114:\n        /* \"#utility.yul\":11576:11653   */\n      0x4e487b7100000000000000000000000000000000000000000000000000000000\n        /* \"#utility.yul\":11573:11574   */\n      0x00\n        /* \"#utility.yul\":11566:11654   */\n      mstore\n        /* \"#utility.yul\":11673:11677   */\n      0x22\n        /* \"#utility.yul\":11670:11671   */\n      0x04\n        /* \"#utility.yul\":11663:11678   */\n      mstore\n        /* \"#utility.yul\":11697:11701   */\n      0x24\n        /* \"#utility.yul\":11694:11695   */\n      0x00\n        /* \"#utility.yul\":11687:11702   */\n      revert\n        /* \"#utility.yul\":11714:12034   */\n    tag_32:\n        /* \"#utility.yul\":11758:11764   */\n      0x00\n        /* \"#utility.yul\":11795:11796   */\n      0x02\n        /* \"#utility.yul\":11789:11793   */\n      dup3\n        /* \"#utility.yul\":11785:11797   */\n      div\n        /* \"#utility.yul\":11775:11797   */\n      swap1\n      pop\n        /* \"#utility.yul\":11842:11843   */\n      0x01\n        /* \"#utility.yul\":11836:11840   */\n      dup3\n        /* \"#utility.yul\":11832:11844   */\n      and\n        /* \"#utility.yul\":11863:11881   */\n      dup1\n        /* \"#utility.yul\":11853:11934   */\n      tag_233\n      jumpi\n        /* \"#utility.yul\":11919:11923   */\n      0x7f\n        /* \"#utility.yul\":11911:11917   */\n      dup3\n        /* \"#utility.yul\":11907:11924   */\n      and\n        /* \"#utility.yul\":11897:11924   */\n      swap2\n      pop\n        /* \"#utility.yul\":11853:11934   */\n    tag_233:\n        /* \"#utility.yul\":11981:11983   */\n      0x20\n        /* \"#utility.yul\":11973:11979   */\n      dup3\n        /* \"#utility.yul\":11970:11984   */\n      lt\n        /* \"#utility.yul\":11950:11968   */\n      dup2\n        /* \"#utility.yul\":11947:11985   */\n      eq\n        /* \"#utility.yul\":11944:12028   */\n      iszero\n      tag_234\n      jumpi\n        /* \"#utility.yul\":12000:12018   */\n      tag_235\n      tag_114\n      jump\t// in\n    tag_235:\n        /* \"#utility.yul\":11944:12028   */\n    tag_234:\n        /* \"#utility.yul\":11765:12034   */\n      pop\n        /* \"#utility.yul\":11714:12034   */\n      swap2\n      swap1\n      pop\n      jump\t// out\n        /* \"#utility.yul\":12040:12188   */\n    tag_115:\n        /* \"#utility.yul\":12142:12153   */\n      0x00\n        /* \"#utility.yul\":12179:12182   */\n      dup2\n        /* \"#utility.yul\":12164:12182   */\n      swap1\n      pop\n        /* \"#utility.yul\":12040:12188   */\n      swap3\n      swap2\n      pop\n      pop\n      jump\t// out\n        /* \"#utility.yul\":12194:12571   */\n    tag_116:\n        /* \"#utility.yul\":12300:12303   */\n      0x00\n        /* \"#utility.yul\":12328:12367   */\n      tag_238\n        /* \"#utility.yul\":12361:12366   */\n      dup3\n        /* \"#utility.yul\":12328:12367   */\n      tag_98\n      jump\t// in\n    tag_238:\n        /* \"#utility.yul\":12383:12472   */\n      tag_239\n        /* \"#utility.yul\":12465:12471   */\n      dup2\n        /* \"#utility.yul\":12460:12463   */\n      dup6\n        /* \"#utility.yul\":12383:12472   */\n      tag_115\n      jump\t// in\n    tag_239:\n        /* \"#utility.yul\":12376:12472   */\n      swap4\n      pop\n        /* \"#utility.yul\":12481:12533   */\n      tag_240\n        /* \"#utility.yul\":12526:12532   */\n      dup2\n        /* \"#utility.yul\":12521:12524   */\n      dup6\n        /* \"#utility.yul\":12514:12518   */\n      0x20\n        /* \"#utility.yul\":12507:12512   */\n      dup7\n        /* \"#utility.yul\":12503:12519   */\n      add\n        /* \"#utility.yul\":12481:12533   */\n      tag_100\n      jump\t// in\n    tag_240:\n        /* \"#utility.yul\":12558:12564   */\n      dup1\n        /* \"#utility.yul\":12553:12556   */\n      dup5\n        /* \"#utility.yul\":12549:12565   */\n      add\n        /* \"#utility.yul\":12542:12565   */\n      swap2\n      pop\n        /* \"#utility.yul\":12304:12571   */\n      pop\n        /* \"#utility.yul\":12194:12571   */\n      swap3\n      swap2\n      pop\n      pop\n      jump\t// out\n        /* \"#utility.yul\":12577:12852   */\n    tag_47:\n        /* \"#utility.yul\":12709:12712   */\n      0x00\n        /* \"#utility.yul\":12731:12826   */\n      tag_242\n        /* \"#utility.yul\":12822:12825   */\n      dup3\n        /* \"#utility.yul\":12813:12819   */\n      dup5\n        /* \"#utility.yul\":12731:12826   */\n      tag_116\n      jump\t// in\n    tag_242:\n        /* \"#utility.yul\":12724:12826   */\n      swap2\n      pop\n        /* \"#utility.yul\":12843:12846   */\n      dup2\n        /* \"#utility.yul\":12836:12846   */\n      swap1\n      pop\n        /* \"#utility.yul\":12577:12852   */\n      swap3\n      swap2\n      pop\n      pop\n      jump\t// out\n\n    auxdata: 0xa26469706673582212207b4dbf91a3472f23990fff74f6a2993f97a53a725c16e9140136891fd671136f64736f6c63430008090033\n}\n","bytecode":{"linkReferences":{},"object":"60806040527351459dd83df6b28fbdc24873fb23485d19f3f6ac6000806101000a81548173ffffffffffffffffffffffffffffffffffffffff021916908373ffffffffffffffffffffffffffffffffffffffff16021790555034801561006457600080fd5b50610d04806100746000396000f3fe60806040526004361061003f5760003560e01c80634165728d1461004457806348d13a14146100835780639abe2039146100b3578063cce2cdd4146100f0575b600080fd5b34801561005057600080fd5b5061006b60048036038101906100669190610814565b61010e565b60405161007a93929190610907565b60405180910390f35b61009d6004803603810190610098919061094c565b61027b565b6040516100aa9190610a22565b60405180910390f35b3480156100bf57600080fd5b506100da60048036038101906100d59190610a3d565b6103b2565b6040516100e79190610bf8565b60405180910390f35b6100f861055d565b6040516101059190610a22565b60405180910390f35b600182805160208101820180518482526020830160208501208183528095505050505050818154811061014057600080fd5b90600052602060002090600302016000915091505080600001549080600101805461016a90610c49565b80601f016020809104026020016040519081016040528092919081815260200182805461019690610c49565b80156101e35780601f106101b8576101008083540402835291602001916101e3565b820191906000526020600020905b8154815290600101906020018083116101c657829003601f168201915b5050505050908060020180546101f890610c49565b80601f016020809104026020016040519081016040528092919081815260200182805461022490610c49565b80156102715780601f1061024657610100808354040283529160200191610271565b820191906000526020600020905b81548152906001019060200180831161025457829003601f168201915b5050505050905083565b600066038d7ea4c6800034101561029157600080fd5b60008054906101000a900473ffffffffffffffffffffffffffffffffffffffff1673ffffffffffffffffffffffffffffffffffffffff166108fc349081150290604051600060405180830381858888f193505050501580156102f7573d6000803e3d6000fd5b50600060405180606001604052808681526020018581526020018481525090506001866040516103279190610cb7565b90815260200160405180910390208190806001815401808255809150506001900390600052602060002090600302016000909190919091506000820151816000015560208201518160010190805190602001906103859291906105e1565b5060408201518160020190805190602001906103a29291906105e1565b5050506001915050949350505050565b60606001826040516103c49190610cb7565b9081526020016040518091039020805480602002602001604051908101604052809291908181526020016000905b8282101561055257838290600052602060002090600302016040518060600160405290816000820154815260200160018201805461042f90610c49565b80601f016020809104026020016040519081016040528092919081815260200182805461045b90610c49565b80156104a85780601f1061047d576101008083540402835291602001916104a8565b820191906000526020600020905b81548152906001019060200180831161048b57829003601f168201915b505050505081526020016002820180546104c190610c49565b80601f01602080910402602001604051908101604052809291908181526020018280546104ed90610c49565b801561053a5780601f1061050f5761010080835404028352916020019161053a565b820191906000526020600020905b81548152906001019060200180831161051d57829003601f168201915b505050505081525050815260200190600101906103f2565b505050509050919050565b600066038d7ea4c6800034101561057357600080fd5b60008054906101000a900473ffffffffffffffffffffffffffffffffffffffff1673ffffffffffffffffffffffffffffffffffffffff166108fc349081150290604051600060405180830381858888f193505050501580156105d9573d6000803e3d6000fd5b506001905090565b8280546105ed90610c49565b90600052602060002090601f01602090048101928261060f5760008555610656565b82601f1061062857805160ff1916838001178555610656565b82800160010185558215610656579182015b8281111561065557825182559160200191906001019061063a565b5b5090506106639190610667565b5090565b5b80821115610680576000816000905550600101610668565b5090565b6000604051905090565b600080fd5b600080fd5b600080fd5b600080fd5b6000601f19601f8301169050919050565b7f4e487b7100000000000000000000000000000000000000000000000000000000600052604160045260246000fd5b6106eb826106a2565b810181811067ffffffffffffffff8211171561070a576107096106b3565b5b80604052505050565b600061071d610684565b905061072982826106e2565b919050565b600067ffffffffffffffff821115610749576107486106b3565b5b610752826106a2565b9050602081019050919050565b82818337600083830152505050565b600061078161077c8461072e565b610713565b90508281526020810184848401111561079d5761079c61069d565b5b6107a884828561075f565b509392505050565b600082601f8301126107c5576107c4610698565b5b81356107d584826020860161076e565b91505092915050565b6000819050919050565b6107f1816107de565b81146107fc57600080fd5b50565b60008135905061080e816107e8565b92915050565b6000806040838503121561082b5761082a61068e565b5b600083013567ffffffffffffffff81111561084957610848610693565b5b610855858286016107b0565b9250506020610866858286016107ff565b9150509250929050565b610879816107de565b82525050565b600081519050919050565b600082825260208201905092915050565b60005b838110156108b957808201518184015260208101905061089e565b838111156108c8576000848401525b50505050565b60006108d98261087f565b6108e3818561088a565b93506108f381856020860161089b565b6108fc816106a2565b840191505092915050565b600060608201905061091c6000830186610870565b818103602083015261092e81856108ce565b9050818103604083015261094281846108ce565b9050949350505050565b600080600080608085870312156109665761096561068e565b5b600085013567ffffffffffffffff81111561098457610983610693565b5b610990878288016107b0565b94505060206109a1878288016107ff565b935050604085013567ffffffffffffffff8111156109c2576109c1610693565b5b6109ce878288016107b0565b925050606085013567ffffffffffffffff8111156109ef576109ee610693565b5b6109fb878288016107b0565b91505092959194509250565b60008115159050919050565b610a1c81610a07565b82525050565b6000602082019050610a376000830184610a13565b92915050565b600060208284031215610a5357610a5261068e565b5b600082013567ffffffffffffffff811115610a7157610a70610693565b5b610a7d848285016107b0565b91505092915050565b600081519050919050565b600082825260208201905092915050565b6000819050602082019050919050565b610abb816107de565b82525050565b600082825260208201905092915050565b6000610add8261087f565b610ae78185610ac1565b9350610af781856020860161089b565b610b00816106a2565b840191505092915050565b6000606083016000830151610b236000860182610ab2565b5060208301518482036020860152610b3b8282610ad2565b91505060408301518482036040860152610b558282610ad2565b9150508091505092915050565b6000610b6e8383610b0b565b905092915050565b6000602082019050919050565b6000610b8e82610a86565b610b988185610a91565b935083602082028501610baa85610aa2565b8060005b85811015610be65784840389528151610bc78582610b62565b9450610bd283610b76565b925060208a01995050600181019050610bae565b50829750879550505050505092915050565b60006020820190508181036000830152610c128184610b83565b905092915050565b7f4e487b7100000000000000000000000000000000000000000000000000000000600052602260045260246000fd5b60006002820490506001821680610c6157607f821691505b60208210811415610c7557610c74610c1a565b5b50919050565b600081905092915050565b6000610c918261087f565b610c9b8185610c7b565b9350610cab81856020860161089b565b80840191505092915050565b6000610cc38284610c86565b91508190509291505056fea26469706673582212207b4dbf91a3472f23990fff74f6a2993f97a53a725c16e9140136891fd671136f64736f6c63430008090033","opcodes":"PUSH1 0x80 PUSH1 0x40 MSTORE PUSH20 0x51459DD83DF6B28FBDC24873FB23485D19F3F6AC PUSH1 0x0 DUP1 PUSH2 0x100 EXP DUP2 SLOAD DUP2 PUSH20 0xFFFFFFFFFFFFFFFFFFFFFFFFFFFFFFFFFFFFFFFF MUL NOT AND SWAP1 DUP4 PUSH20 0xFFFFFFFFFFFFFFFFFFFFFFFFFFFFFFFFFFFFFFFF AND MUL OR SWAP1 SSTORE POP CALLVALUE DUP1 ISZERO PUSH2 0x64 JUMPI PUSH1 0x0 DUP1 REVERT JUMPDEST POP PUSH2 0xD04 DUP1 PUSH2 0x74 PUSH1 0x0 CODECOPY PUSH1 0x0 RETURN INVALID PUSH1 0x80 PUSH1 0x40 MSTORE PUSH1 0x4 CALLDATASIZE LT PUSH2 0x3F JUMPI PUSH1 0x0 CALLDATALOAD PUSH1 0xE0 SHR DUP1 PUSH4 0x4165728D EQ PUSH2 0x44 JUMPI DUP1 PUSH4 0x48D13A14 EQ PUSH2 0x83 JUMPI DUP1 PUSH4 0x9ABE2039 EQ PUSH2 0xB3 JUMPI DUP1 PUSH4 0xCCE2CDD4 EQ PUSH2 0xF0 JUMPI JUMPDEST PUSH1 0x0 DUP1 REVERT JUMPDEST CALLVALUE DUP1 ISZERO PUSH2 0x50 JUMPI PUSH1 0x0 DUP1 REVERT JUMPDEST POP PUSH2 0x6B PUSH1 0x4 DUP1 CALLDATASIZE SUB DUP2 ADD SWAP1 PUSH2 0x66 SWAP2 SWAP1 PUSH2 0x814 JUMP JUMPDEST PUSH2 0x10E JUMP JUMPDEST PUSH1 0x40 MLOAD PUSH2 0x7A SWAP4 SWAP3 SWAP2 SWAP1 PUSH2 0x907 JUMP JUMPDEST PUSH1 0x40 MLOAD DUP1 SWAP2 SUB SWAP1 RETURN JUMPDEST PUSH2 0x9D PUSH1 0x4 DUP1 CALLDATASIZE SUB DUP2 ADD SWAP1 PUSH2 0x98 SWAP2 SWAP1 PUSH2 0x94C JUMP JUMPDEST PUSH2 0x27B JUMP JUMPDEST PUSH1 0x40 MLOAD PUSH2 0xAA SWAP2 SWAP1 PUSH2 0xA22 JUMP JUMPDEST PUSH1 0x40 MLOAD DUP1 SWAP2 SUB SWAP1 RETURN JUMPDEST CALLVALUE DUP1 ISZERO PUSH2 0xBF JUMPI PUSH1 0x0 DUP1 REVERT JUMPDEST POP PUSH2 0xDA PUSH1 0x4 DUP1 CALLDATASIZE SUB DUP2 ADD SWAP1 PUSH2 0xD5 SWAP2 SWAP1 PUSH2 0xA3D JUMP JUMPDEST PUSH2 0x3B2 JUMP JUMPDEST PUSH1 0x40 MLOAD PUSH2 0xE7 SWAP2 SWAP1 PUSH2 0xBF8 JUMP JUMPDEST PUSH1 0x40 MLOAD DUP1 SWAP2 SUB SWAP1 RETURN JUMPDEST PUSH2 0xF8 PUSH2 0x55D JUMP JUMPDEST PUSH1 0x40 MLOAD PUSH2 0x105 SWAP2 SWAP1 PUSH2 0xA22 JUMP JUMPDEST PUSH1 0x40 MLOAD DUP1 SWAP2 SUB SWAP1 RETURN JUMPDEST PUSH1 0x1 DUP3 DUP1 MLOAD PUSH1 0x20 DUP2 ADD DUP3 ADD DUP1 MLOAD DUP5 DUP3 MSTORE PUSH1 0x20 DUP4 ADD PUSH1 0x20 DUP6 ADD KECCAK256 DUP2 DUP4 MSTORE DUP1 SWAP6 POP POP POP POP POP POP DUP2 DUP2 SLOAD DUP2 LT PUSH2 0x140 JUMPI PUSH1 0x0 DUP1 REVERT JUMPDEST SWAP1 PUSH1 0x0 MSTORE PUSH1 0x20 PUSH1 0x0 KECCAK256 SWAP1 PUSH1 0x3 MUL ADD PUSH1 0x0 SWAP2 POP SWAP2 POP POP DUP1 PUSH1 0x0 ADD SLOAD SWAP1 DUP1 PUSH1 0x1 ADD DUP1 SLOAD PUSH2 0x16A SWAP1 PUSH2 0xC49 JUMP JUMPDEST DUP1 PUSH1 0x1F ADD PUSH1 0x20 DUP1 SWAP2 DIV MUL PUSH1 0x20 ADD PUSH1 0x40 MLOAD SWAP1 DUP2 ADD PUSH1 0x40 MSTORE DUP1 SWAP3 SWAP2 SWAP1 DUP2 DUP2 MSTORE PUSH1 0x20 ADD DUP3 DUP1 SLOAD PUSH2 0x196 SWAP1 PUSH2 0xC49 JUMP JUMPDEST DUP1 ISZERO PUSH2 0x1E3 JUMPI DUP1 PUSH1 0x1F LT PUSH2 0x1B8 JUMPI PUSH2 0x100 DUP1 DUP4 SLOAD DIV MUL DUP4 MSTORE SWAP2 PUSH1 0x20 ADD SWAP2 PUSH2 0x1E3 JUMP JUMPDEST DUP3 ADD SWAP2 SWAP1 PUSH1 0x0 MSTORE PUSH1 0x20 PUSH1 0x0 KECCAK256 SWAP1 JUMPDEST DUP2 SLOAD DUP2 MSTORE SWAP1 PUSH1 0x1 ADD SWAP1 PUSH1 0x20 ADD DUP1 DUP4 GT PUSH2 0x1C6 JUMPI DUP3 SWAP1 SUB PUSH1 0x1F AND DUP3 ADD SWAP2 JUMPDEST POP POP POP POP POP SWAP1 DUP1 PUSH1 0x2 ADD DUP1 SLOAD PUSH2 0x1F8 SWAP1 PUSH2 0xC49 JUMP JUMPDEST DUP1 PUSH1 0x1F ADD PUSH1 0x20 DUP1 SWAP2 DIV MUL PUSH1 0x20 ADD PUSH1 0x40 MLOAD SWAP1 DUP2 ADD PUSH1 0x40 MSTORE DUP1 SWAP3 SWAP2 SWAP1 DUP2 DUP2 MSTORE PUSH1 0x20 ADD DUP3 DUP1 SLOAD PUSH2 0x224 SWAP1 PUSH2 0xC49 JUMP JUMPDEST DUP1 ISZERO PUSH2 0x271 JUMPI DUP1 PUSH1 0x1F LT PUSH2 0x246 JUMPI PUSH2 0x100 DUP1 DUP4 SLOAD DIV MUL DUP4 MSTORE SWAP2 PUSH1 0x20 ADD SWAP2 PUSH2 0x271 JUMP JUMPDEST DUP3 ADD SWAP2 SWAP1 PUSH1 0x0 MSTORE PUSH1 0x20 PUSH1 0x0 KECCAK256 SWAP1 JUMPDEST DUP2 SLOAD DUP2 MSTORE SWAP1 PUSH1 0x1 ADD SWAP1 PUSH1 0x20 ADD DUP1 DUP4 GT PUSH2 0x254 JUMPI DUP3 SWAP1 SUB PUSH1 0x1F AND DUP3 ADD SWAP2 JUMPDEST POP POP POP POP POP SWAP1 POP DUP4 JUMP JUMPDEST PUSH1 0x0 PUSH7 0x38D7EA4C68000 CALLVALUE LT ISZERO PUSH2 0x291 JUMPI PUSH1 0x0 DUP1 REVERT JUMPDEST PUSH1 0x0 DUP1 SLOAD SWAP1 PUSH2 0x100 EXP SWAP1 DIV PUSH20 0xFFFFFFFFFFFFFFFFFFFFFFFFFFFFFFFFFFFFFFFF AND PUSH20 0xFFFFFFFFFFFFFFFFFFFFFFFFFFFFFFFFFFFFFFFF AND PUSH2 0x8FC CALLVALUE SWAP1 DUP2 ISZERO MUL SWAP1 PUSH1 0x40 MLOAD PUSH1 0x0 PUSH1 0x40 MLOAD DUP1 DUP4 SUB DUP2 DUP6 DUP9 DUP9 CALL SWAP4 POP POP POP POP ISZERO DUP1 ISZERO PUSH2 0x2F7 JUMPI RETURNDATASIZE PUSH1 0x0 DUP1 RETURNDATACOPY RETURNDATASIZE PUSH1 0x0 REVERT JUMPDEST POP PUSH1 0x0 PUSH1 0x40 MLOAD DUP1 PUSH1 0x60 ADD PUSH1 0x40 MSTORE DUP1 DUP7 DUP2 MSTORE PUSH1 0x20 ADD DUP6 DUP2 MSTORE PUSH1 0x20 ADD DUP5 DUP2 MSTORE POP SWAP1 POP PUSH1 0x1 DUP7 PUSH1 0x40 MLOAD PUSH2 0x327 SWAP2 SWAP1 PUSH2 0xCB7 JUMP JUMPDEST SWAP1 DUP2 MSTORE PUSH1 0x20 ADD PUSH1 0x40 MLOAD DUP1 SWAP2 SUB SWAP1 KECCAK256 DUP2 SWAP1 DUP1 PUSH1 0x1 DUP2 SLOAD ADD DUP1 DUP3 SSTORE DUP1 SWAP2 POP POP PUSH1 0x1 SWAP1 SUB SWAP1 PUSH1 0x0 MSTORE PUSH1 0x20 PUSH1 0x0 KECCAK256 SWAP1 PUSH1 0x3 MUL ADD PUSH1 0x0 SWAP1 SWAP2 SWAP1 SWAP2 SWAP1 SWAP2 POP PUSH1 0x0 DUP3 ADD MLOAD DUP2 PUSH1 0x0 ADD SSTORE PUSH1 0x20 DUP3 ADD MLOAD DUP2 PUSH1 0x1 ADD SWAP1 DUP1 MLOAD SWAP1 PUSH1 0x20 ADD SWAP1 PUSH2 0x385 SWAP3 SWAP2 SWAP1 PUSH2 0x5E1 JUMP JUMPDEST POP PUSH1 0x40 DUP3 ADD MLOAD DUP2 PUSH1 0x2 ADD SWAP1 DUP1 MLOAD SWAP1 PUSH1 0x20 ADD SWAP1 PUSH2 0x3A2 SWAP3 SWAP2 SWAP1 PUSH2 0x5E1 JUMP JUMPDEST POP POP POP PUSH1 0x1 SWAP2 POP POP SWAP5 SWAP4 POP POP POP POP JUMP JUMPDEST PUSH1 0x60 PUSH1 0x1 DUP3 PUSH1 0x40 MLOAD PUSH2 0x3C4 SWAP2 SWAP1 PUSH2 0xCB7 JUMP JUMPDEST SWAP1 DUP2 MSTORE PUSH1 0x20 ADD PUSH1 0x40 MLOAD DUP1 SWAP2 SUB SWAP1 KECCAK256 DUP1 SLOAD DUP1 PUSH1 0x20 MUL PUSH1 0x20 ADD PUSH1 0x40 MLOAD SWAP1 DUP2 ADD PUSH1 0x40 MSTORE DUP1 SWAP3 SWAP2 SWAP1 DUP2 DUP2 MSTORE PUSH1 0x20 ADD PUSH1 0x0 SWAP1 JUMPDEST DUP3 DUP3 LT ISZERO PUSH2 0x552 JUMPI DUP4 DUP3 SWAP1 PUSH1 0x0 MSTORE PUSH1 0x20 PUSH1 0x0 KECCAK256 SWAP1 PUSH1 0x3 MUL ADD PUSH1 0x40 MLOAD DUP1 PUSH1 0x60 ADD PUSH1 0x40 MSTORE SWAP1 DUP2 PUSH1 0x0 DUP3 ADD SLOAD DUP2 MSTORE PUSH1 0x20 ADD PUSH1 0x1 DUP3 ADD DUP1 SLOAD PUSH2 0x42F SWAP1 PUSH2 0xC49 JUMP JUMPDEST DUP1 PUSH1 0x1F ADD PUSH1 0x20 DUP1 SWAP2 DIV MUL PUSH1 0x20 ADD PUSH1 0x40 MLOAD SWAP1 DUP2 ADD PUSH1 0x40 MSTORE DUP1 SWAP3 SWAP2 SWAP1 DUP2 DUP2 MSTORE PUSH1 0x20 ADD DUP3 DUP1 SLOAD PUSH2 0x45B SWAP1 PUSH2 0xC49 JUMP JUMPDEST DUP1 ISZERO PUSH2 0x4A8 JUMPI DUP1 PUSH1 0x1F LT PUSH2 0x47D JUMPI PUSH2 0x100 DUP1 DUP4 SLOAD DIV MUL DUP4 MSTORE SWAP2 PUSH1 0x20 ADD SWAP2 PUSH2 0x4A8 JUMP JUMPDEST DUP3 ADD SWAP2 SWAP1 PUSH1 0x0 MSTORE PUSH1 0x20 PUSH1 0x0 KECCAK256 SWAP1 JUMPDEST DUP2 SLOAD DUP2 MSTORE SWAP1 PUSH1 0x1 ADD SWAP1 PUSH1 0x20 ADD DUP1 DUP4 GT PUSH2 0x48B JUMPI DUP3 SWAP1 SUB PUSH1 0x1F AND DUP3 ADD SWAP2 JUMPDEST POP POP POP POP POP DUP2 MSTORE PUSH1 0x20 ADD PUSH1 0x2 DUP3 ADD DUP1 SLOAD PUSH2 0x4C1 SWAP1 PUSH2 0xC49 JUMP JUMPDEST DUP1 PUSH1 0x1F ADD PUSH1 0x20 DUP1 SWAP2 DIV MUL PUSH1 0x20 ADD PUSH1 0x40 MLOAD SWAP1 DUP2 ADD PUSH1 0x40 MSTORE DUP1 SWAP3 SWAP2 SWAP1 DUP2 DUP2 MSTORE PUSH1 0x20 ADD DUP3 DUP1 SLOAD PUSH2 0x4ED SWAP1 PUSH2 0xC49 JUMP JUMPDEST DUP1 ISZERO PUSH2 0x53A JUMPI DUP1 PUSH1 0x1F LT PUSH2 0x50F JUMPI PUSH2 0x100 DUP1 DUP4 SLOAD DIV MUL DUP4 MSTORE SWAP2 PUSH1 0x20 ADD SWAP2 PUSH2 0x53A JUMP JUMPDEST DUP3 ADD SWAP2 SWAP1 PUSH1 0x0 MSTORE PUSH1 0x20 PUSH1 0x0 KECCAK256 SWAP1 JUMPDEST DUP2 SLOAD DUP2 MSTORE SWAP1 PUSH1 0x1 ADD SWAP1 PUSH1 0x20 ADD DUP1 DUP4 GT PUSH2 0x51D JUMPI DUP3 SWAP1 SUB PUSH1 0x1F AND DUP3 ADD SWAP2 JUMPDEST POP POP POP POP POP DUP2 MSTORE POP POP DUP2 MSTORE PUSH1 0x20 ADD SWAP1 PUSH1 0x1 ADD SWAP1 PUSH2 0x3F2 JUMP JUMPDEST POP POP POP POP SWAP1 POP SWAP2 SWAP1 POP JUMP JUMPDEST PUSH1 0x0 PUSH7 0x38D7EA4C68000 CALLVALUE LT ISZERO PUSH2 0x573 JUMPI PUSH1 0x0 DUP1 REVERT JUMPDEST PUSH1 0x0 DUP1 SLOAD SWAP1 PUSH2 0x100 EXP SWAP1 DIV PUSH20 0xFFFFFFFFFFFFFFFFFFFFFFFFFFFFFFFFFFFFFFFF AND PUSH20 0xFFFFFFFFFFFFFFFFFFFFFFFFFFFFFFFFFFFFFFFF AND PUSH2 0x8FC CALLVALUE SWAP1 DUP2 ISZERO MUL SWAP1 PUSH1 0x40 MLOAD PUSH1 0x0 PUSH1 0x40 MLOAD DUP1 DUP4 SUB DUP2 DUP6 DUP9 DUP9 CALL SWAP4 POP POP POP POP ISZERO DUP1 ISZERO PUSH2 0x5D9 JUMPI RETURNDATASIZE PUSH1 0x0 DUP1 RETURNDATACOPY RETURNDATASIZE PUSH1 0x0 REVERT JUMPDEST POP PUSH1 0x1 SWAP1 POP SWAP1 JUMP JUMPDEST DUP3 DUP1 SLOAD PUSH2 0x5ED SWAP1 PUSH2 0xC49 JUMP JUMPDEST SWAP1 PUSH1 0x0 MSTORE PUSH1 0x20 PUSH1 0x0 KECCAK256 SWAP1 PUSH1 0x1F ADD PUSH1 0x20 SWAP1 DIV DUP2 ADD SWAP3 DUP3 PUSH2 0x60F JUMPI PUSH1 0x0 DUP6 SSTORE PUSH2 0x656 JUMP JUMPDEST DUP3 PUSH1 0x1F LT PUSH2 0x628 JUMPI DUP1 MLOAD PUSH1 0xFF NOT AND DUP4 DUP1 ADD OR DUP6 SSTORE PUSH2 0x656 JUMP JUMPDEST DUP3 DUP1 ADD PUSH1 0x1 ADD DUP6 SSTORE DUP3 ISZERO PUSH2 0x656 JUMPI SWAP2 DUP3 ADD JUMPDEST DUP3 DUP2 GT ISZERO PUSH2 0x655 JUMPI DUP3 MLOAD DUP3 SSTORE SWAP2 PUSH1 0x20 ADD SWAP2 SWAP1 PUSH1 0x1 ADD SWAP1 PUSH2 0x63A JUMP JUMPDEST JUMPDEST POP SWAP1 POP PUSH2 0x663 SWAP2 SWAP1 PUSH2 0x667 JUMP JUMPDEST POP SWAP1 JUMP JUMPDEST JUMPDEST DUP1 DUP3 GT ISZERO PUSH2 0x680 JUMPI PUSH1 0x0 DUP2 PUSH1 0x0 SWAP1 SSTORE POP PUSH1 0x1 ADD PUSH2 0x668 JUMP JUMPDEST POP SWAP1 JUMP JUMPDEST PUSH1 0x0 PUSH1 0x40 MLOAD SWAP1 POP SWAP1 JUMP JUMPDEST PUSH1 0x0 DUP1 REVERT JUMPDEST PUSH1 0x0 DUP1 REVERT JUMPDEST PUSH1 0x0 DUP1 REVERT JUMPDEST PUSH1 0x0 DUP1 REVERT JUMPDEST PUSH1 0x0 PUSH1 0x1F NOT PUSH1 0x1F DUP4 ADD AND SWAP1 POP SWAP2 SWAP1 POP JUMP JUMPDEST PUSH32 0x4E487B7100000000000000000000000000000000000000000000000000000000 PUSH1 0x0 MSTORE PUSH1 0x41 PUSH1 0x4 MSTORE PUSH1 0x24 PUSH1 0x0 REVERT JUMPDEST PUSH2 0x6EB DUP3 PUSH2 0x6A2 JUMP JUMPDEST DUP2 ADD DUP2 DUP2 LT PUSH8 0xFFFFFFFFFFFFFFFF DUP3 GT OR ISZERO PUSH2 0x70A JUMPI PUSH2 0x709 PUSH2 0x6B3 JUMP JUMPDEST JUMPDEST DUP1 PUSH1 0x40 MSTORE POP POP POP JUMP JUMPDEST PUSH1 0x0 PUSH2 0x71D PUSH2 0x684 JUMP JUMPDEST SWAP1 POP PUSH2 0x729 DUP3 DUP3 PUSH2 0x6E2 JUMP JUMPDEST SWAP2 SWAP1 POP JUMP JUMPDEST PUSH1 0x0 PUSH8 0xFFFFFFFFFFFFFFFF DUP3 GT ISZERO PUSH2 0x749 JUMPI PUSH2 0x748 PUSH2 0x6B3 JUMP JUMPDEST JUMPDEST PUSH2 0x752 DUP3 PUSH2 0x6A2 JUMP JUMPDEST SWAP1 POP PUSH1 0x20 DUP2 ADD SWAP1 POP SWAP2 SWAP1 POP JUMP JUMPDEST DUP3 DUP2 DUP4 CALLDATACOPY PUSH1 0x0 DUP4 DUP4 ADD MSTORE POP POP POP JUMP JUMPDEST PUSH1 0x0 PUSH2 0x781 PUSH2 0x77C DUP5 PUSH2 0x72E JUMP JUMPDEST PUSH2 0x713 JUMP JUMPDEST SWAP1 POP DUP3 DUP2 MSTORE PUSH1 0x20 DUP2 ADD DUP5 DUP5 DUP5 ADD GT ISZERO PUSH2 0x79D JUMPI PUSH2 0x79C PUSH2 0x69D JUMP JUMPDEST JUMPDEST PUSH2 0x7A8 DUP5 DUP3 DUP6 PUSH2 0x75F JUMP JUMPDEST POP SWAP4 SWAP3 POP POP POP JUMP JUMPDEST PUSH1 0x0 DUP3 PUSH1 0x1F DUP4 ADD SLT PUSH2 0x7C5 JUMPI PUSH2 0x7C4 PUSH2 0x698 JUMP JUMPDEST JUMPDEST DUP2 CALLDATALOAD PUSH2 0x7D5 DUP5 DUP3 PUSH1 0x20 DUP7 ADD PUSH2 0x76E JUMP JUMPDEST SWAP2 POP POP SWAP3 SWAP2 POP POP JUMP JUMPDEST PUSH1 0x0 DUP2 SWAP1 POP SWAP2 SWAP1 POP JUMP JUMPDEST PUSH2 0x7F1 DUP2 PUSH2 0x7DE JUMP JUMPDEST DUP2 EQ PUSH2 0x7FC JUMPI PUSH1 0x0 DUP1 REVERT JUMPDEST POP JUMP JUMPDEST PUSH1 0x0 DUP2 CALLDATALOAD SWAP1 POP PUSH2 0x80E DUP2 PUSH2 0x7E8 JUMP JUMPDEST SWAP3 SWAP2 POP POP JUMP JUMPDEST PUSH1 0x0 DUP1 PUSH1 0x40 DUP4 DUP6 SUB SLT ISZERO PUSH2 0x82B JUMPI PUSH2 0x82A PUSH2 0x68E JUMP JUMPDEST JUMPDEST PUSH1 0x0 DUP4 ADD CALLDATALOAD PUSH8 0xFFFFFFFFFFFFFFFF DUP2 GT ISZERO PUSH2 0x849 JUMPI PUSH2 0x848 PUSH2 0x693 JUMP JUMPDEST JUMPDEST PUSH2 0x855 DUP6 DUP3 DUP7 ADD PUSH2 0x7B0 JUMP JUMPDEST SWAP3 POP POP PUSH1 0x20 PUSH2 0x866 DUP6 DUP3 DUP7 ADD PUSH2 0x7FF JUMP JUMPDEST SWAP2 POP POP SWAP3 POP SWAP3 SWAP1 POP JUMP JUMPDEST PUSH2 0x879 DUP2 PUSH2 0x7DE JUMP JUMPDEST DUP3 MSTORE POP POP JUMP JUMPDEST PUSH1 0x0 DUP2 MLOAD SWAP1 POP SWAP2 SWAP1 POP JUMP JUMPDEST PUSH1 0x0 DUP3 DUP3 MSTORE PUSH1 0x20 DUP3 ADD SWAP1 POP SWAP3 SWAP2 POP POP JUMP JUMPDEST PUSH1 0x0 JUMPDEST DUP4 DUP2 LT ISZERO PUSH2 0x8B9 JUMPI DUP1 DUP3 ADD MLOAD DUP2 DUP5 ADD MSTORE PUSH1 0x20 DUP2 ADD SWAP1 POP PUSH2 0x89E JUMP JUMPDEST DUP4 DUP2 GT ISZERO PUSH2 0x8C8 JUMPI PUSH1 0x0 DUP5 DUP5 ADD MSTORE JUMPDEST POP POP POP POP JUMP JUMPDEST PUSH1 0x0 PUSH2 0x8D9 DUP3 PUSH2 0x87F JUMP JUMPDEST PUSH2 0x8E3 DUP2 DUP6 PUSH2 0x88A JUMP JUMPDEST SWAP4 POP PUSH2 0x8F3 DUP2 DUP6 PUSH1 0x20 DUP7 ADD PUSH2 0x89B JUMP JUMPDEST PUSH2 0x8FC DUP2 PUSH2 0x6A2 JUMP JUMPDEST DUP5 ADD SWAP2 POP POP SWAP3 SWAP2 POP POP JUMP JUMPDEST PUSH1 0x0 PUSH1 0x60 DUP3 ADD SWAP1 POP PUSH2 0x91C PUSH1 0x0 DUP4 ADD DUP7 PUSH2 0x870 JUMP JUMPDEST DUP2 DUP2 SUB PUSH1 0x20 DUP4 ADD MSTORE PUSH2 0x92E DUP2 DUP6 PUSH2 0x8CE JUMP JUMPDEST SWAP1 POP DUP2 DUP2 SUB PUSH1 0x40 DUP4 ADD MSTORE PUSH2 0x942 DUP2 DUP5 PUSH2 0x8CE JUMP JUMPDEST SWAP1 POP SWAP5 SWAP4 POP POP POP POP JUMP JUMPDEST PUSH1 0x0 DUP1 PUSH1 0x0 DUP1 PUSH1 0x80 DUP6 DUP8 SUB SLT ISZERO PUSH2 0x966 JUMPI PUSH2 0x965 PUSH2 0x68E JUMP JUMPDEST JUMPDEST PUSH1 0x0 DUP6 ADD CALLDATALOAD PUSH8 0xFFFFFFFFFFFFFFFF DUP2 GT ISZERO PUSH2 0x984 JUMPI PUSH2 0x983 PUSH2 0x693 JUMP JUMPDEST JUMPDEST PUSH2 0x990 DUP8 DUP3 DUP9 ADD PUSH2 0x7B0 JUMP JUMPDEST SWAP5 POP POP PUSH1 0x20 PUSH2 0x9A1 DUP8 DUP3 DUP9 ADD PUSH2 0x7FF JUMP JUMPDEST SWAP4 POP POP PUSH1 0x40 DUP6 ADD CALLDATALOAD PUSH8 0xFFFFFFFFFFFFFFFF DUP2 GT ISZERO PUSH2 0x9C2 JUMPI PUSH2 0x9C1 PUSH2 0x693 JUMP JUMPDEST JUMPDEST PUSH2 0x9CE DUP8 DUP3 DUP9 ADD PUSH2 0x7B0 JUMP JUMPDEST SWAP3 POP POP PUSH1 0x60 DUP6 ADD CALLDATALOAD PUSH8 0xFFFFFFFFFFFFFFFF DUP2 GT ISZERO PUSH2 0x9EF JUMPI PUSH2 0x9EE PUSH2 0x693 JUMP JUMPDEST JUMPDEST PUSH2 0x9FB DUP8 DUP3 DUP9 ADD PUSH2 0x7B0 JUMP JUMPDEST SWAP2 POP POP SWAP3 SWAP6 SWAP2 SWAP5 POP SWAP3 POP JUMP JUMPDEST PUSH1 0x0 DUP2 ISZERO ISZERO SWAP1 POP SWAP2 SWAP1 POP JUMP JUMPDEST PUSH2 0xA1C DUP2 PUSH2 0xA07 JUMP JUMPDEST DUP3 MSTORE POP POP JUMP JUMPDEST PUSH1 0x0 PUSH1 0x20 DUP3 ADD SWAP1 POP PUSH2 0xA37 PUSH1 0x0 DUP4 ADD DUP5 PUSH2 0xA13 JUMP JUMPDEST SWAP3 SWAP2 POP POP JUMP JUMPDEST PUSH1 0x0 PUSH1 0x20 DUP3 DUP5 SUB SLT ISZERO PUSH2 0xA53 JUMPI PUSH2 0xA52 PUSH2 0x68E JUMP JUMPDEST JUMPDEST PUSH1 0x0 DUP3 ADD CALLDATALOAD PUSH8 0xFFFFFFFFFFFFFFFF DUP2 GT ISZERO PUSH2 0xA71 JUMPI PUSH2 0xA70 PUSH2 0x693 JUMP JUMPDEST JUMPDEST PUSH2 0xA7D DUP5 DUP3 DUP6 ADD PUSH2 0x7B0 JUMP JUMPDEST SWAP2 POP POP SWAP3 SWAP2 POP POP JUMP JUMPDEST PUSH1 0x0 DUP2 MLOAD SWAP1 POP SWAP2 SWAP1 POP JUMP JUMPDEST PUSH1 0x0 DUP3 DUP3 MSTORE PUSH1 0x20 DUP3 ADD SWAP1 POP SWAP3 SWAP2 POP POP JUMP JUMPDEST PUSH1 0x0 DUP2 SWAP1 POP PUSH1 0x20 DUP3 ADD SWAP1 POP SWAP2 SWAP1 POP JUMP JUMPDEST PUSH2 0xABB DUP2 PUSH2 0x7DE JUMP JUMPDEST DUP3 MSTORE POP POP JUMP JUMPDEST PUSH1 0x0 DUP3 DUP3 MSTORE PUSH1 0x20 DUP3 ADD SWAP1 POP SWAP3 SWAP2 POP POP JUMP JUMPDEST PUSH1 0x0 PUSH2 0xADD DUP3 PUSH2 0x87F JUMP JUMPDEST PUSH2 0xAE7 DUP2 DUP6 PUSH2 0xAC1 JUMP JUMPDEST SWAP4 POP PUSH2 0xAF7 DUP2 DUP6 PUSH1 0x20 DUP7 ADD PUSH2 0x89B JUMP JUMPDEST PUSH2 0xB00 DUP2 PUSH2 0x6A2 JUMP JUMPDEST DUP5 ADD SWAP2 POP POP SWAP3 SWAP2 POP POP JUMP JUMPDEST PUSH1 0x0 PUSH1 0x60 DUP4 ADD PUSH1 0x0 DUP4 ADD MLOAD PUSH2 0xB23 PUSH1 0x0 DUP7 ADD DUP3 PUSH2 0xAB2 JUMP JUMPDEST POP PUSH1 0x20 DUP4 ADD MLOAD DUP5 DUP3 SUB PUSH1 0x20 DUP7 ADD MSTORE PUSH2 0xB3B DUP3 DUP3 PUSH2 0xAD2 JUMP JUMPDEST SWAP2 POP POP PUSH1 0x40 DUP4 ADD MLOAD DUP5 DUP3 SUB PUSH1 0x40 DUP7 ADD MSTORE PUSH2 0xB55 DUP3 DUP3 PUSH2 0xAD2 JUMP JUMPDEST SWAP2 POP POP DUP1 SWAP2 POP POP SWAP3 SWAP2 POP POP JUMP JUMPDEST PUSH1 0x0 PUSH2 0xB6E DUP4 DUP4 PUSH2 0xB0B JUMP JUMPDEST SWAP1 POP SWAP3 SWAP2 POP POP JUMP JUMPDEST PUSH1 0x0 PUSH1 0x20 DUP3 ADD SWAP1 POP SWAP2 SWAP1 POP JUMP JUMPDEST PUSH1 0x0 PUSH2 0xB8E DUP3 PUSH2 0xA86 JUMP JUMPDEST PUSH2 0xB98 DUP2 DUP6 PUSH2 0xA91 JUMP JUMPDEST SWAP4 POP DUP4 PUSH1 0x20 DUP3 MUL DUP6 ADD PUSH2 0xBAA DUP6 PUSH2 0xAA2 JUMP JUMPDEST DUP1 PUSH1 0x0 JUMPDEST DUP6 DUP2 LT ISZERO PUSH2 0xBE6 JUMPI DUP5 DUP5 SUB DUP10 MSTORE DUP2 MLOAD PUSH2 0xBC7 DUP6 DUP3 PUSH2 0xB62 JUMP JUMPDEST SWAP5 POP PUSH2 0xBD2 DUP4 PUSH2 0xB76 JUMP JUMPDEST SWAP3 POP PUSH1 0x20 DUP11 ADD SWAP10 POP POP PUSH1 0x1 DUP2 ADD SWAP1 POP PUSH2 0xBAE JUMP JUMPDEST POP DUP3 SWAP8 POP DUP8 SWAP6 POP POP POP POP POP POP SWAP3 SWAP2 POP POP JUMP JUMPDEST PUSH1 0x0 PUSH1 0x20 DUP3 ADD SWAP1 POP DUP2 DUP2 SUB PUSH1 0x0 DUP4 ADD MSTORE PUSH2 0xC12 DUP2 DUP5 PUSH2 0xB83 JUMP JUMPDEST SWAP1 POP SWAP3 SWAP2 POP POP JUMP JUMPDEST PUSH32 0x4E487B7100000000000000000000000000000000000000000000000000000000 PUSH1 0x0 MSTORE PUSH1 0x22 PUSH1 0x4 MSTORE PUSH1 0x24 PUSH1 0x0 REVERT JUMPDEST PUSH1 0x0 PUSH1 0x2 DUP3 DIV SWAP1 POP PUSH1 0x1 DUP3 AND DUP1 PUSH2 0xC61 JUMPI PUSH1 0x7F DUP3 AND SWAP2 POP JUMPDEST PUSH1 0x20 DUP3 LT DUP2 EQ ISZERO PUSH2 0xC75 JUMPI PUSH2 0xC74 PUSH2 0xC1A JUMP JUMPDEST JUMPDEST POP SWAP2 SWAP1 POP JUMP JUMPDEST PUSH1 0x0 DUP2 SWAP1 POP SWAP3 SWAP2 POP POP JUMP JUMPDEST PUSH1 0x0 PUSH2 0xC91 DUP3 PUSH2 0x87F JUMP JUMPDEST PUSH2 0xC9B DUP2 DUP6 PUSH2 0xC7B JUMP JUMPDEST SWAP4 POP PUSH2 0xCAB DUP2 DUP6 PUSH1 0x20 DUP7 ADD PUSH2 0x89B JUMP JUMPDEST DUP1 DUP5 ADD SWAP2 POP POP SWAP3 SWAP2 POP POP JUMP JUMPDEST PUSH1 0x0 PUSH2 0xCC3 DUP3 DUP5 PUSH2 0xC86 JUMP JUMPDEST SWAP2 POP DUP2 SWAP1 POP SWAP3 SWAP2 POP POP JUMP INVALID LOG2 PUSH5 0x6970667358 0x22 SLT KECCAK256 PUSH28 0x4DBF91A3472F23990FFF74F6A2993F97A53A725C16E9140136891FD6 PUSH18 0x136F64736F6C634300080900330000000000 "},"gasEstimates":{"creation":{"codeDepositCost":"666400","executionCost":"24969","totalCost":"691369"},"external":{"bids(string,uint256)":"infinite","getPlacedBids(string)":"infinite","payVideoUploadingFee()":"infinite","placeBid(string,uint256,string,string)":"infinite"}},"methodIdentifiers":{"bids(string,uint256)":"4165728d","getPlacedBids(string)":"9abe2039","payVideoUploadingFee()":"cce2cdd4","placeBid(string,uint256,string,string)":"48d13a14"}},"storageLayout":{"storage":[{"astId":4,"contract":"Fundhunting.sol:Fundhunting","label":"FundhuntingDirector","offset":0,"slot":"0","type":"t_address"},{"astId":17,"contract":"Fundhunting.sol:Fundhunting","label":"bids","offset":0,"slot":"1","type":"t_mapping(t_string_memory_ptr,t_array(t_struct(Bid)11_storage)dyn_storage)"}],"types":{"t_address":{"encoding":"inplace","label":"address","numberOfBytes":"20"},"t_array(t_struct(Bid)11_storage)dyn_storage":{"base":"t_struct(Bid)11_storage","encoding":"dynamic_array","label":"struct Fundhunting.Bid[]","numberOfBytes":"32"},"t_mapping(t_string_memory_ptr,t_array(t_struct(Bid)11_storage)dyn_storage)":{"encoding":"mapping","key":"t_string_memory_ptr","label":"mapping(string => struct Fundhunting.Bid[])","numberOfBytes":"32","value":"t_array(t_struct(Bid)11_storage)dyn_storage"},"t_string_memory_ptr":{"encoding":"bytes","label":"string","numberOfBytes":"32"},"t_string_storage":{"encoding":"bytes","label":"string","numberOfBytes":"32"},"t_struct(Bid)11_storage":{"encoding":"inplace","label":"struct Fundhunting.Bid","members":[{"astId":6,"contract":"Fundhunting.sol:Fundhunting","label":"amount","offset":0,"slot":"0","type":"t_uint256"},{"astId":8,"contract":"Fundhunting.sol:Fundhunting","label":"equity","offset":0,"slot":"1","type":"t_string_storage"},{"astId":10,"contract":"Fundhunting.sol:Fundhunting","label":"bidPlacer","offset":0,"slot":"2","type":"t_string_storage"}],"numberOfBytes":"96"},"t_uint256":{"encoding":"inplace","label":"uint256","numberOfBytes":"32"}}},"userdoc":{"kind":"user","methods":{},"version":1}}